{
	"CrossDestinationMinter.sol": {
		"CrossDestinationMinter": {
			"abi": [
				{
					"inputs": [
						{
							"internalType": "address",
							"name": "nftAddress",
							"type": "address"
						}
					],
					"stateMutability": "nonpayable",
					"type": "constructor"
				},
				{
					"inputs": [
						{
							"internalType": "address",
							"name": "router",
							"type": "address"
						}
					],
					"name": "InvalidRouter",
					"type": "error"
				},
				{
					"anonymous": false,
					"inputs": [],
					"name": "MintCallSuccessfull",
					"type": "event"
				},
				{
					"inputs": [
						{
							"components": [
								{
									"internalType": "bytes32",
									"name": "messageId",
									"type": "bytes32"
								},
								{
									"internalType": "uint64",
									"name": "sourceChainSelector",
									"type": "uint64"
								},
								{
									"internalType": "bytes",
									"name": "sender",
									"type": "bytes"
								},
								{
									"internalType": "bytes",
									"name": "data",
									"type": "bytes"
								},
								{
									"components": [
										{
											"internalType": "address",
											"name": "token",
											"type": "address"
										},
										{
											"internalType": "uint256",
											"name": "amount",
											"type": "uint256"
										}
									],
									"internalType": "struct Client.EVMTokenAmount[]",
									"name": "destTokenAmounts",
									"type": "tuple[]"
								}
							],
							"internalType": "struct Client.Any2EVMMessage",
							"name": "message",
							"type": "tuple"
						}
					],
					"name": "ccipReceive",
					"outputs": [],
					"stateMutability": "nonpayable",
					"type": "function"
				},
				{
					"inputs": [],
					"name": "getRouter",
					"outputs": [
						{
							"internalType": "address",
							"name": "",
							"type": "address"
						}
					],
					"stateMutability": "view",
					"type": "function"
				},
				{
					"inputs": [],
					"name": "nft",
					"outputs": [
						{
							"internalType": "contract InftMinter",
							"name": "",
							"type": "address"
						}
					],
					"stateMutability": "view",
					"type": "function"
				},
				{
					"inputs": [
						{
							"internalType": "bytes4",
							"name": "interfaceId",
							"type": "bytes4"
						}
					],
					"name": "supportsInterface",
					"outputs": [
						{
							"internalType": "bool",
							"name": "",
							"type": "bool"
						}
					],
					"stateMutability": "view",
					"type": "function"
				},
				{
					"inputs": [],
					"name": "testMessage",
					"outputs": [],
					"stateMutability": "nonpayable",
					"type": "function"
				},
				{
					"inputs": [],
					"name": "testMint",
					"outputs": [],
					"stateMutability": "nonpayable",
					"type": "function"
				},
				{
					"inputs": [
						{
							"internalType": "address",
							"name": "nftAddress",
							"type": "address"
						}
					],
					"name": "updateNFT",
					"outputs": [],
					"stateMutability": "nonpayable",
					"type": "function"
				}
			],
			"devdoc": {
				"kind": "dev",
				"methods": {
					"ccipReceive((bytes32,uint64,bytes,bytes,(address,uint256)[]))": {
						"details": "Note ensure you check the msg.sender is the OffRampRouter",
						"params": {
							"message": "CCIP Message"
						}
					},
					"getRouter()": {
						"returns": {
							"_0": "CCIP router address"
						}
					},
					"supportsInterface(bytes4)": {
						"details": "Should indicate whether the contract implements IAny2EVMMessageReceiver e.g. return interfaceId == type(IAny2EVMMessageReceiver).interfaceId || interfaceId == type(IERC165).interfaceId This allows CCIP to check if ccipReceive is available before calling it. If this returns false or reverts, only tokens are transferred to the receiver. If this returns true, tokens are transferred and ccipReceive is called atomically. Additionally, if the receiver address does not have code associated with it at the time of execution (EXTCODESIZE returns 0), only tokens will be transferred.",
						"params": {
							"interfaceId": "The interfaceId to check"
						},
						"returns": {
							"_0": "true if the interfaceId is supported"
						}
					}
				},
				"version": 1
			},
			"evm": {
				"assembly": "    /* \"CrossDestinationMinter.sol\":549:1650  contract CrossDestinationMinter is CCIPReceiver {... */\n  mstore(0x40, 0xa0)\n    /* \"CrossDestinationMinter.sol\":727:793  address routerSepolia = 0x0BF3dE8c5D3e8A2B34D2BEeB17ABfCeBaf363A59 */\n  0x01\n  dup1\n  sload\n  not(sub(shl(0xa0, 0x01), 0x01))\n  and\n    /* \"CrossDestinationMinter.sol\":751:793  0x0BF3dE8c5D3e8A2B34D2BEeB17ABfCeBaf363A59 */\n  0x0bf3de8c5d3e8a2b34d2beeb17abfcebaf363a59\n    /* \"CrossDestinationMinter.sol\":727:793  address routerSepolia = 0x0BF3dE8c5D3e8A2B34D2BEeB17ABfCeBaf363A59 */\n  or\n  swap1\n  sstore\n    /* \"CrossDestinationMinter.sol\":800:905  constructor(address nftAddress) CCIPReceiver(routerSepolia) {... */\n  callvalue\n  dup1\n  iszero\n  tag_1\n  jumpi\n  0x00\n  dup1\n  revert\ntag_1:\n  pop\n  mload(0x40)\n  sub(codesize, bytecodeSize)\n  dup1\n  bytecodeSize\n  dup4\n  codecopy\n  dup2\n  add\n  0x40\n  dup2\n  swap1\n  mstore\n  tag_2\n  swap2\n  tag_3\n  jump\t// in\ntag_2:\n    /* \"CrossDestinationMinter.sol\":845:858  routerSepolia */\n  and(sub(shl(0xa0, 0x01), 0x01), sload(0x01))\n  dup1\n    /* \"@chainlink/contracts-ccip/src/v0.8/ccip/applications/CCIPReceiver.sol\":538:596  if (router == address(0)) revert InvalidRouter(address(0)) */\n  tag_7\n  jumpi\n    /* \"@chainlink/contracts-ccip/src/v0.8/ccip/applications/CCIPReceiver.sol\":571:596  InvalidRouter(address(0)) */\n  mload(0x40)\n  shl(0xe2, 0x35fdcccd)\n  dup2\n  mstore\n    /* \"@chainlink/contracts-ccip/src/v0.8/ccip/applications/CCIPReceiver.sol\":593:594  0 */\n  0x00\n    /* \"@chainlink/contracts-ccip/src/v0.8/ccip/applications/CCIPReceiver.sol\":571:596  InvalidRouter(address(0)) */\n  0x04\n  dup3\n  add\n    /* \"#utility.yul\":455:506   */\n  mstore\n    /* \"#utility.yul\":428:446   */\n  0x24\n  add\n    /* \"@chainlink/contracts-ccip/src/v0.8/ccip/applications/CCIPReceiver.sol\":571:596  InvalidRouter(address(0)) */\n  mload(0x40)\n  dup1\n  swap2\n  sub\n  swap1\n  revert\n    /* \"@chainlink/contracts-ccip/src/v0.8/ccip/applications/CCIPReceiver.sol\":538:596  if (router == address(0)) revert InvalidRouter(address(0)) */\ntag_7:\n  sub(shl(0xa0, 0x01), 0x01)\n    /* \"@chainlink/contracts-ccip/src/v0.8/ccip/applications/CCIPReceiver.sol\":602:623  i_ccipRouter = router */\n  swap1\n  dup2\n  and\n  0x80\n  mstore\n    /* \"CrossDestinationMinter.sol\":870:873  nft */\n  0x00\n    /* \"CrossDestinationMinter.sol\":870:898  nft = InftMinter(nftAddress) */\n  dup1\n  sload\n  not(sub(shl(0xa0, 0x01), 0x01))\n  and\n  swap3\n  swap1\n  swap2\n  and\n  swap2\n  swap1\n  swap2\n  or\n  swap1\n  sstore\n    /* \"CrossDestinationMinter.sol\":549:1650  contract CrossDestinationMinter is CCIPReceiver {... */\n  jump(tag_12)\n    /* \"#utility.yul\":14:304   */\ntag_3:\n    /* \"#utility.yul\":84:90   */\n  0x00\n    /* \"#utility.yul\":137:139   */\n  0x20\n    /* \"#utility.yul\":125:134   */\n  dup3\n    /* \"#utility.yul\":116:123   */\n  dup5\n    /* \"#utility.yul\":112:135   */\n  sub\n    /* \"#utility.yul\":108:140   */\n  slt\n    /* \"#utility.yul\":105:157   */\n  iszero\n  tag_14\n  jumpi\n    /* \"#utility.yul\":153:154   */\n  0x00\n    /* \"#utility.yul\":150:151   */\n  dup1\n    /* \"#utility.yul\":143:155   */\n  revert\n    /* \"#utility.yul\":105:157   */\ntag_14:\n    /* \"#utility.yul\":179:195   */\n  dup2\n  mload\n  sub(shl(0xa0, 0x01), 0x01)\n    /* \"#utility.yul\":224:255   */\n  dup2\n  and\n    /* \"#utility.yul\":214:256   */\n  dup2\n  eq\n    /* \"#utility.yul\":204:274   */\n  tag_15\n  jumpi\n    /* \"#utility.yul\":270:271   */\n  0x00\n    /* \"#utility.yul\":267:268   */\n  dup1\n    /* \"#utility.yul\":260:272   */\n  revert\n    /* \"#utility.yul\":204:274   */\ntag_15:\n    /* \"#utility.yul\":293:298   */\n  swap4\n    /* \"#utility.yul\":14:304   */\n  swap3\n  pop\n  pop\n  pop\n  jump\t// out\n    /* \"#utility.yul\":309:512   */\ntag_12:\n    /* \"CrossDestinationMinter.sol\":549:1650  contract CrossDestinationMinter is CCIPReceiver {... */\n  mload(0x80)\n  codecopy(0x00, dataOffset(sub_0), dataSize(sub_0))\n  0x00\n  assignImmutable(\"0x5c4c6aa067b6f8e6cb38e6ab843832a94d1712d661a04d73c517d6a1931a9e5d\")\n  return(0x00, dataSize(sub_0))\nstop\n\nsub_0: assembly {\n        /* \"CrossDestinationMinter.sol\":549:1650  contract CrossDestinationMinter is CCIPReceiver {... */\n      mstore(0x40, 0x80)\n      callvalue\n      dup1\n      iszero\n      tag_1\n      jumpi\n      0x00\n      dup1\n      revert\n    tag_1:\n      pop\n      jumpi(tag_2, lt(calldatasize, 0x04))\n      shr(0xe0, calldataload(0x00))\n      dup1\n      0x5be68e93\n      gt\n      tag_10\n      jumpi\n      dup1\n      0x5be68e93\n      eq\n      tag_6\n      jumpi\n      dup1\n      0x85572ffb\n      eq\n      tag_7\n      jumpi\n      dup1\n      0x9642ddaf\n      eq\n      tag_8\n      jumpi\n      dup1\n      0xb0f479a1\n      eq\n      tag_9\n      jumpi\n      0x00\n      dup1\n      revert\n    tag_10:\n      dup1\n      0x01ffc9a7\n      eq\n      tag_3\n      jumpi\n      dup1\n      0x08076601\n      eq\n      tag_4\n      jumpi\n      dup1\n      0x47ccca02\n      eq\n      tag_5\n      jumpi\n    tag_2:\n      0x00\n      dup1\n      revert\n        /* \"@chainlink/contracts-ccip/src/v0.8/ccip/applications/CCIPReceiver.sol\":1405:1614  function supportsInterface(bytes4 interfaceId) public view virtual override returns (bool) {... */\n    tag_3:\n      tag_11\n      tag_12\n      calldatasize\n      0x04\n      tag_13\n      jump\t// in\n    tag_12:\n      tag_14\n      jump\t// in\n    tag_11:\n      mload(0x40)\n        /* \"#utility.yul\":470:484   */\n      swap1\n      iszero\n        /* \"#utility.yul\":463:485   */\n      iszero\n        /* \"#utility.yul\":445:486   */\n      dup2\n      mstore\n        /* \"#utility.yul\":433:435   */\n      0x20\n        /* \"#utility.yul\":418:436   */\n      add\n        /* \"@chainlink/contracts-ccip/src/v0.8/ccip/applications/CCIPReceiver.sol\":1405:1614  function supportsInterface(bytes4 interfaceId) public view virtual override returns (bool) {... */\n    tag_15:\n      mload(0x40)\n      dup1\n      swap2\n      sub\n      swap1\n      return\n        /* \"CrossDestinationMinter.sol\":1246:1549  function testMessage() external {... */\n    tag_4:\n      tag_17\n      tag_18\n      jump\t// in\n    tag_17:\n      stop\n        /* \"CrossDestinationMinter.sol\":603:624  InftMinter public nft */\n    tag_5:\n      sload(0x00)\n      tag_19\n      swap1\n      sub(shl(0xa0, 0x01), 0x01)\n      and\n      dup2\n      jump\n    tag_19:\n      mload(0x40)\n      sub(shl(0xa0, 0x01), 0x01)\n        /* \"#utility.yul\":679:711   */\n      swap1\n      swap2\n      and\n        /* \"#utility.yul\":661:712   */\n      dup2\n      mstore\n        /* \"#utility.yul\":649:651   */\n      0x20\n        /* \"#utility.yul\":634:652   */\n      add\n        /* \"CrossDestinationMinter.sol\":603:624  InftMinter public nft */\n      tag_15\n        /* \"#utility.yul\":497:718   */\n      jump\n        /* \"CrossDestinationMinter.sol\":1555:1648  function updateNFT(address nftAddress) external {... */\n    tag_6:\n      tag_17\n      tag_24\n      calldatasize\n      0x04\n      tag_25\n      jump\t// in\n    tag_24:\n        /* \"CrossDestinationMinter.sol\":1613:1616  nft */\n      0x00\n        /* \"CrossDestinationMinter.sol\":1613:1641  nft = InftMinter(nftAddress) */\n      dup1\n      sload\n      not(sub(shl(0xa0, 0x01), 0x01))\n      and\n      sub(shl(0xa0, 0x01), 0x01)\n      swap3\n      swap1\n      swap3\n      and\n      swap2\n      swap1\n      swap2\n      or\n      swap1\n      sstore\n        /* \"CrossDestinationMinter.sol\":1555:1648  function updateNFT(address nftAddress) external {... */\n      jump\n        /* \"@chainlink/contracts-ccip/src/v0.8/ccip/applications/CCIPReceiver.sol\":1660:1790  function ccipReceive(Client.Any2EVMMessage calldata message) external virtual override onlyRouter {... */\n    tag_7:\n      tag_17\n      tag_28\n      calldatasize\n      0x04\n      tag_29\n      jump\t// in\n    tag_28:\n      tag_30\n      jump\t// in\n        /* \"CrossDestinationMinter.sol\":1138:1240  function testMint() external {... */\n    tag_8:\n      tag_17\n      tag_32\n      jump\t// in\n        /* \"@chainlink/contracts-ccip/src/v0.8/ccip/applications/CCIPReceiver.sol\":2205:2303  function getRouter() public view virtual returns (address) {... */\n    tag_9:\n        /* \"@chainlink/contracts-ccip/src/v0.8/ccip/applications/CCIPReceiver.sol\":2285:2297  i_ccipRouter */\n      immutable(\"0x5c4c6aa067b6f8e6cb38e6ab843832a94d1712d661a04d73c517d6a1931a9e5d\")\n        /* \"@chainlink/contracts-ccip/src/v0.8/ccip/applications/CCIPReceiver.sol\":2205:2303  function getRouter() public view virtual returns (address) {... */\n      jump(tag_19)\n        /* \"@chainlink/contracts-ccip/src/v0.8/ccip/applications/CCIPReceiver.sol\":1405:1614  function supportsInterface(bytes4 interfaceId) public view virtual override returns (bool) {... */\n    tag_14:\n        /* \"@chainlink/contracts-ccip/src/v0.8/ccip/applications/CCIPReceiver.sol\":1490:1494  bool */\n      0x00\n      not(sub(shl(0xe0, 0x01), 0x01))\n        /* \"@chainlink/contracts-ccip/src/v0.8/ccip/applications/CCIPReceiver.sol\":1509:1565  interfaceId == type(IAny2EVMMessageReceiver).interfaceId */\n      dup3\n      and\n      shl(0xe0, 0x85572ffb)\n      eq\n      dup1\n        /* \"@chainlink/contracts-ccip/src/v0.8/ccip/applications/CCIPReceiver.sol\":1509:1609  interfaceId == type(IAny2EVMMessageReceiver).interfaceId || interfaceId == type(IERC165).interfaceId */\n      tag_38\n      jumpi\n      pop\n      not(sub(shl(0xe0, 0x01), 0x01))\n        /* \"@chainlink/contracts-ccip/src/v0.8/ccip/applications/CCIPReceiver.sol\":1569:1609  interfaceId == type(IERC165).interfaceId */\n      dup3\n      and\n      shl(0xe0, 0x01ffc9a7)\n      eq\n        /* \"@chainlink/contracts-ccip/src/v0.8/ccip/applications/CCIPReceiver.sol\":1509:1609  interfaceId == type(IAny2EVMMessageReceiver).interfaceId || interfaceId == type(IERC165).interfaceId */\n    tag_38:\n        /* \"@chainlink/contracts-ccip/src/v0.8/ccip/applications/CCIPReceiver.sol\":1502:1609  return interfaceId == type(IAny2EVMMessageReceiver).interfaceId || interfaceId == type(IERC165).interfaceId */\n      swap3\n        /* \"@chainlink/contracts-ccip/src/v0.8/ccip/applications/CCIPReceiver.sol\":1405:1614  function supportsInterface(bytes4 interfaceId) public view virtual override returns (bool) {... */\n      swap2\n      pop\n      pop\n      jump\t// out\n        /* \"CrossDestinationMinter.sol\":1246:1549  function testMessage() external {... */\n    tag_18:\n        /* \"CrossDestinationMinter.sol\":1357:1424  abi.encodeWithSignature(\"mintFrom(address,uint256)\", msg.sender, 0) */\n      mload(0x40)\n        /* \"CrossDestinationMinter.sol\":1410:1420  msg.sender */\n      caller\n        /* \"CrossDestinationMinter.sol\":1357:1424  abi.encodeWithSignature(\"mintFrom(address,uint256)\", msg.sender, 0) */\n      0x24\n      dup3\n      add\n        /* \"#utility.yul\":1878:1929   */\n      mstore\n        /* \"CrossDestinationMinter.sol\":1422:1423  0 */\n      0x00\n        /* \"#utility.yul\":1945:1963   */\n      0x44\n      dup3\n      add\n        /* \"#utility.yul\":1938:1983   */\n      mstore\n        /* \"CrossDestinationMinter.sol\":1317:1337  bytes memory message */\n      0x60\n      swap1\n        /* \"#utility.yul\":1851:1869   */\n      0x64\n      add\n        /* \"CrossDestinationMinter.sol\":1357:1424  abi.encodeWithSignature(\"mintFrom(address,uint256)\", msg.sender, 0) */\n      0x40\n      dup1\n      mload\n      not(0x1f)\n      dup2\n      dup5\n      sub\n      add\n      dup2\n      mstore\n      swap2\n      dup2\n      mstore\n      0x20\n      dup3\n      add\n      dup1\n      mload\n      sub(shl(0xe0, 0x01), 0x01)\n      and\n      shl(0xe0, 0x1cc74859)\n      or\n      swap1\n      mstore\n      0x00\n        /* \"CrossDestinationMinter.sol\":1462:1465  nft */\n      dup1\n      sload\n        /* \"CrossDestinationMinter.sol\":1454:1480  address(nft).call(message) */\n      swap2\n      mload\n        /* \"CrossDestinationMinter.sol\":1357:1424  abi.encodeWithSignature(\"mintFrom(address,uint256)\", msg.sender, 0) */\n      swap3\n      swap4\n      pop\n      swap2\n      sub(shl(0xa0, 0x01), 0x01)\n        /* \"CrossDestinationMinter.sol\":1462:1465  nft */\n      swap1\n      swap2\n      and\n      swap1\n        /* \"CrossDestinationMinter.sol\":1454:1480  address(nft).call(message) */\n      tag_42\n      swap1\n        /* \"CrossDestinationMinter.sol\":1357:1424  abi.encodeWithSignature(\"mintFrom(address,uint256)\", msg.sender, 0) */\n      dup5\n      swap1\n        /* \"CrossDestinationMinter.sol\":1454:1480  address(nft).call(message) */\n      tag_43\n      jump\t// in\n    tag_42:\n      0x00\n      mload(0x40)\n      dup1\n      dup4\n      sub\n      dup2\n      0x00\n      dup7\n      gas\n      call\n      swap2\n      pop\n      pop\n      returndatasize\n      dup1\n      0x00\n      dup2\n      eq\n      tag_46\n      jumpi\n      mload(0x40)\n      swap2\n      pop\n      and(add(returndatasize, 0x3f), not(0x1f))\n      dup3\n      add\n      0x40\n      mstore\n      returndatasize\n      dup3\n      mstore\n      returndatasize\n      0x00\n      0x20\n      dup5\n      add\n      returndatacopy\n      jump(tag_45)\n    tag_46:\n      0x60\n      swap2\n      pop\n    tag_45:\n      pop\n        /* \"CrossDestinationMinter.sol\":1435:1480  (bool success, ) = address(nft).call(message) */\n      pop\n      swap1\n      pop\n        /* \"CrossDestinationMinter.sol\":1498:1505  success */\n      dup1\n        /* \"CrossDestinationMinter.sol\":1490:1506  require(success) */\n      tag_47\n      jumpi\n      0x00\n      dup1\n      revert\n    tag_47:\n        /* \"CrossDestinationMinter.sol\":1521:1542  MintCallSuccessfull() */\n      mload(0x40)\n      0xa8bcb6a278444293ea5c0bce4a4734a060a5f557bb999d8a57c4f69e96f1fe88\n      swap1\n      0x00\n      swap1\n      log1\n        /* \"CrossDestinationMinter.sol\":1278:1549  {... */\n      pop\n      pop\n        /* \"CrossDestinationMinter.sol\":1246:1549  function testMessage() external {... */\n      jump\t// out\n        /* \"@chainlink/contracts-ccip/src/v0.8/ccip/applications/CCIPReceiver.sol\":1660:1790  function ccipReceive(Client.Any2EVMMessage calldata message) external virtual override onlyRouter {... */\n    tag_30:\n        /* \"@chainlink/contracts-ccip/src/v0.8/ccip/applications/CCIPReceiver.sol\":2435:2445  msg.sender */\n      caller\n      sub(shl(0xa0, 0x01), 0x01)\n        /* \"@chainlink/contracts-ccip/src/v0.8/ccip/applications/CCIPReceiver.sol\":2285:2297  i_ccipRouter */\n      immutable(\"0x5c4c6aa067b6f8e6cb38e6ab843832a94d1712d661a04d73c517d6a1931a9e5d\")\n        /* \"@chainlink/contracts-ccip/src/v0.8/ccip/applications/CCIPReceiver.sol\":2435:2460  msg.sender != getRouter() */\n      and\n      eq\n        /* \"@chainlink/contracts-ccip/src/v0.8/ccip/applications/CCIPReceiver.sol\":2431:2494  if (msg.sender != getRouter()) revert InvalidRouter(msg.sender) */\n      tag_51\n      jumpi\n        /* \"@chainlink/contracts-ccip/src/v0.8/ccip/applications/CCIPReceiver.sol\":2469:2494  InvalidRouter(msg.sender) */\n      mload(0x40)\n      shl(0xe2, 0x35fdcccd)\n      dup2\n      mstore\n        /* \"@chainlink/contracts-ccip/src/v0.8/ccip/applications/CCIPReceiver.sol\":2483:2493  msg.sender */\n      caller\n        /* \"@chainlink/contracts-ccip/src/v0.8/ccip/applications/CCIPReceiver.sol\":2469:2494  InvalidRouter(msg.sender) */\n      0x04\n      dup3\n      add\n        /* \"#utility.yul\":661:712   */\n      mstore\n        /* \"#utility.yul\":634:652   */\n      0x24\n      add\n        /* \"@chainlink/contracts-ccip/src/v0.8/ccip/applications/CCIPReceiver.sol\":2469:2494  InvalidRouter(msg.sender) */\n      mload(0x40)\n      dup1\n      swap2\n      sub\n      swap1\n      revert\n        /* \"@chainlink/contracts-ccip/src/v0.8/ccip/applications/CCIPReceiver.sol\":2431:2494  if (msg.sender != getRouter()) revert InvalidRouter(msg.sender) */\n    tag_51:\n        /* \"@chainlink/contracts-ccip/src/v0.8/ccip/applications/CCIPReceiver.sol\":1764:1785  _ccipReceive(message) */\n      tag_54\n      tag_55\n        /* \"@chainlink/contracts-ccip/src/v0.8/ccip/applications/CCIPReceiver.sol\":1777:1784  message */\n      dup3\n        /* \"@chainlink/contracts-ccip/src/v0.8/ccip/applications/CCIPReceiver.sol\":1764:1785  _ccipReceive(message) */\n      tag_56\n      jump\t// in\n    tag_55:\n        /* \"@chainlink/contracts-ccip/src/v0.8/ccip/applications/CCIPReceiver.sol\":1764:1776  _ccipReceive */\n      tag_57\n        /* \"@chainlink/contracts-ccip/src/v0.8/ccip/applications/CCIPReceiver.sol\":1764:1785  _ccipReceive(message) */\n      jump\t// in\n    tag_54:\n        /* \"@chainlink/contracts-ccip/src/v0.8/ccip/applications/CCIPReceiver.sol\":1660:1790  function ccipReceive(Client.Any2EVMMessage calldata message) external virtual override onlyRouter {... */\n      pop\n      jump\t// out\n        /* \"CrossDestinationMinter.sol\":1138:1240  function testMint() external {... */\n    tag_32:\n        /* \"CrossDestinationMinter.sol\":1206:1209  nft */\n      0x00\n      dup1\n      sload\n        /* \"CrossDestinationMinter.sol\":1206:1233  nft.mintFrom(msg.sender, 0) */\n      mload(0x40)\n      shl(0xe0, 0x1cc74859)\n      dup2\n      mstore\n        /* \"CrossDestinationMinter.sol\":1219:1229  msg.sender */\n      caller\n        /* \"CrossDestinationMinter.sol\":1206:1233  nft.mintFrom(msg.sender, 0) */\n      0x04\n      dup3\n      add\n        /* \"#utility.yul\":6247:6298   */\n      mstore\n        /* \"#utility.yul\":6314:6332   */\n      0x24\n      dup2\n      add\n        /* \"#utility.yul\":6307:6341   */\n      swap3\n      swap1\n      swap3\n      mstore\n      sub(shl(0xa0, 0x01), 0x01)\n        /* \"CrossDestinationMinter.sol\":1206:1209  nft */\n      and\n      swap1\n        /* \"CrossDestinationMinter.sol\":1206:1218  nft.mintFrom */\n      0x1cc74859\n      swap1\n        /* \"#utility.yul\":6220:6238   */\n      0x44\n      add\n        /* \"CrossDestinationMinter.sol\":1206:1233  nft.mintFrom(msg.sender, 0) */\n      0x00\n      mload(0x40)\n      dup1\n      dup4\n      sub\n      dup2\n      0x00\n      dup8\n      dup1\n      extcodesize\n      iszero\n      dup1\n      iszero\n      tag_61\n      jumpi\n      0x00\n      dup1\n      revert\n    tag_61:\n      pop\n      gas\n      call\n      iszero\n      dup1\n      iszero\n      tag_63\n      jumpi\n      returndatasize\n      0x00\n      dup1\n      returndatacopy\n      revert(0x00, returndatasize)\n    tag_63:\n      pop\n      pop\n      pop\n      pop\n        /* \"CrossDestinationMinter.sol\":1138:1240  function testMint() external {... */\n      jump\t// out\n        /* \"CrossDestinationMinter.sol\":911:1132  function _ccipReceive(... */\n    tag_57:\n        /* \"CrossDestinationMinter.sol\":1014:1026  bool success */\n      0x00\n        /* \"CrossDestinationMinter.sol\":1040:1043  nft */\n      dup1\n      sload\n        /* \"CrossDestinationMinter.sol\":1050:1062  message.data */\n      0x60\n      dup4\n      add\n      mload\n        /* \"CrossDestinationMinter.sol\":1032:1063  address(nft).call(message.data) */\n      mload(0x40)\n      sub(shl(0xa0, 0x01), 0x01)\n        /* \"CrossDestinationMinter.sol\":1040:1043  nft */\n      swap1\n      swap3\n      and\n      swap2\n        /* \"CrossDestinationMinter.sol\":1032:1063  address(nft).call(message.data) */\n      tag_42\n      swap2\n        /* \"CrossDestinationMinter.sol\":1050:1062  message.data */\n      swap1\n        /* \"CrossDestinationMinter.sol\":1032:1063  address(nft).call(message.data) */\n      tag_43\n      jump\t// in\n        /* \"#utility.yul\":14:300   */\n    tag_13:\n        /* \"#utility.yul\":72:78   */\n      0x00\n        /* \"#utility.yul\":125:127   */\n      0x20\n        /* \"#utility.yul\":113:122   */\n      dup3\n        /* \"#utility.yul\":104:111   */\n      dup5\n        /* \"#utility.yul\":100:123   */\n      sub\n        /* \"#utility.yul\":96:128   */\n      slt\n        /* \"#utility.yul\":93:145   */\n      iszero\n      tag_81\n      jumpi\n        /* \"#utility.yul\":141:142   */\n      0x00\n        /* \"#utility.yul\":138:139   */\n      dup1\n        /* \"#utility.yul\":131:143   */\n      revert\n        /* \"#utility.yul\":93:145   */\n    tag_81:\n        /* \"#utility.yul\":167:190   */\n      dup2\n      calldataload\n      not(sub(shl(0xe0, 0x01), 0x01))\n        /* \"#utility.yul\":219:251   */\n      dup2\n      and\n        /* \"#utility.yul\":209:252   */\n      dup2\n      eq\n        /* \"#utility.yul\":199:270   */\n      tag_82\n      jumpi\n        /* \"#utility.yul\":266:267   */\n      0x00\n        /* \"#utility.yul\":263:264   */\n      dup1\n        /* \"#utility.yul\":256:268   */\n      revert\n        /* \"#utility.yul\":199:270   */\n    tag_82:\n        /* \"#utility.yul\":289:294   */\n      swap4\n        /* \"#utility.yul\":14:300   */\n      swap3\n      pop\n      pop\n      pop\n      jump\t// out\n        /* \"#utility.yul\":723:896   */\n    tag_71:\n        /* \"#utility.yul\":791:811   */\n      dup1\n      calldataload\n      sub(shl(0xa0, 0x01), 0x01)\n        /* \"#utility.yul\":840:871   */\n      dup2\n      and\n        /* \"#utility.yul\":830:872   */\n      dup2\n      eq\n        /* \"#utility.yul\":820:890   */\n      tag_86\n      jumpi\n        /* \"#utility.yul\":886:887   */\n      0x00\n        /* \"#utility.yul\":883:884   */\n      dup1\n        /* \"#utility.yul\":876:888   */\n      revert\n        /* \"#utility.yul\":820:890   */\n    tag_86:\n        /* \"#utility.yul\":723:896   */\n      swap2\n      swap1\n      pop\n      jump\t// out\n        /* \"#utility.yul\":901:1087   */\n    tag_25:\n        /* \"#utility.yul\":960:966   */\n      0x00\n        /* \"#utility.yul\":1013:1015   */\n      0x20\n        /* \"#utility.yul\":1001:1010   */\n      dup3\n        /* \"#utility.yul\":992:999   */\n      dup5\n        /* \"#utility.yul\":988:1011   */\n      sub\n        /* \"#utility.yul\":984:1016   */\n      slt\n        /* \"#utility.yul\":981:1033   */\n      iszero\n      tag_88\n      jumpi\n        /* \"#utility.yul\":1029:1030   */\n      0x00\n        /* \"#utility.yul\":1026:1027   */\n      dup1\n        /* \"#utility.yul\":1019:1031   */\n      revert\n        /* \"#utility.yul\":981:1033   */\n    tag_88:\n        /* \"#utility.yul\":1052:1081   */\n      tag_82\n        /* \"#utility.yul\":1071:1080   */\n      dup3\n        /* \"#utility.yul\":1052:1081   */\n      tag_71\n      jump\t// in\n        /* \"#utility.yul\":1092:1485   */\n    tag_29:\n        /* \"#utility.yul\":1184:1190   */\n      0x00\n        /* \"#utility.yul\":1237:1239   */\n      0x20\n        /* \"#utility.yul\":1225:1234   */\n      dup3\n        /* \"#utility.yul\":1216:1223   */\n      dup5\n        /* \"#utility.yul\":1212:1235   */\n      sub\n        /* \"#utility.yul\":1208:1240   */\n      slt\n        /* \"#utility.yul\":1205:1257   */\n      iszero\n      tag_91\n      jumpi\n        /* \"#utility.yul\":1253:1254   */\n      0x00\n        /* \"#utility.yul\":1250:1251   */\n      dup1\n        /* \"#utility.yul\":1243:1255   */\n      revert\n        /* \"#utility.yul\":1205:1257   */\n    tag_91:\n        /* \"#utility.yul\":1293:1302   */\n      dup2\n        /* \"#utility.yul\":1280:1303   */\n      calldataload\n        /* \"#utility.yul\":1326:1344   */\n      0xffffffffffffffff\n        /* \"#utility.yul\":1318:1324   */\n      dup2\n        /* \"#utility.yul\":1315:1345   */\n      gt\n        /* \"#utility.yul\":1312:1362   */\n      iszero\n      tag_92\n      jumpi\n        /* \"#utility.yul\":1358:1359   */\n      0x00\n        /* \"#utility.yul\":1355:1356   */\n      dup1\n        /* \"#utility.yul\":1348:1360   */\n      revert\n        /* \"#utility.yul\":1312:1362   */\n    tag_92:\n        /* \"#utility.yul\":1381:1403   */\n      dup3\n      add\n        /* \"#utility.yul\":1437:1440   */\n      0xa0\n        /* \"#utility.yul\":1419:1435   */\n      dup2\n      dup6\n      sub\n        /* \"#utility.yul\":1415:1441   */\n      slt\n        /* \"#utility.yul\":1412:1458   */\n      iszero\n      tag_82\n      jumpi\n        /* \"#utility.yul\":1454:1455   */\n      0x00\n        /* \"#utility.yul\":1451:1452   */\n      dup1\n        /* \"#utility.yul\":1444:1456   */\n      revert\n        /* \"#utility.yul\":1994:2406   */\n    tag_43:\n        /* \"#utility.yul\":2123:2126   */\n      0x00\n        /* \"#utility.yul\":2161:2167   */\n      dup3\n        /* \"#utility.yul\":2155:2168   */\n      mload\n        /* \"#utility.yul\":2186:2187   */\n      0x00\n        /* \"#utility.yul\":2196:2325   */\n    tag_97:\n        /* \"#utility.yul\":2210:2216   */\n      dup2\n        /* \"#utility.yul\":2207:2208   */\n      dup2\n        /* \"#utility.yul\":2204:2217   */\n      lt\n        /* \"#utility.yul\":2196:2325   */\n      iszero\n      tag_99\n      jumpi\n        /* \"#utility.yul\":2308:2312   */\n      0x20\n        /* \"#utility.yul\":2292:2306   */\n      dup2\n      dup7\n      add\n        /* \"#utility.yul\":2288:2313   */\n      dup2\n      add\n        /* \"#utility.yul\":2282:2314   */\n      mload\n        /* \"#utility.yul\":2269:2280   */\n      dup6\n      dup4\n      add\n        /* \"#utility.yul\":2262:2315   */\n      mstore\n        /* \"#utility.yul\":2225:2237   */\n      add\n        /* \"#utility.yul\":2196:2325   */\n      jump(tag_97)\n    tag_99:\n      pop\n        /* \"#utility.yul\":2380:2381   */\n      0x00\n        /* \"#utility.yul\":2344:2360   */\n      swap3\n      add\n        /* \"#utility.yul\":2369:2382   */\n      swap2\n      dup3\n      mstore\n      pop\n        /* \"#utility.yul\":2344:2360   */\n      swap2\n        /* \"#utility.yul\":1994:2406   */\n      swap1\n      pop\n      jump\t// out\n        /* \"#utility.yul\":2411:2538   */\n    tag_72:\n        /* \"#utility.yul\":2472:2482   */\n      0x4e487b71\n        /* \"#utility.yul\":2467:2470   */\n      0xe0\n        /* \"#utility.yul\":2463:2483   */\n      shl\n        /* \"#utility.yul\":2460:2461   */\n      0x00\n        /* \"#utility.yul\":2453:2484   */\n      mstore\n        /* \"#utility.yul\":2503:2507   */\n      0x41\n        /* \"#utility.yul\":2500:2501   */\n      0x04\n        /* \"#utility.yul\":2493:2508   */\n      mstore\n        /* \"#utility.yul\":2527:2531   */\n      0x24\n        /* \"#utility.yul\":2524:2525   */\n      0x00\n        /* \"#utility.yul\":2517:2532   */\n      revert\n        /* \"#utility.yul\":2543:2800   */\n    tag_73:\n        /* \"#utility.yul\":2615:2619   */\n      0x40\n        /* \"#utility.yul\":2609:2620   */\n      dup1\n      mload\n      swap1\n        /* \"#utility.yul\":2647:2664   */\n      dup2\n      add\n        /* \"#utility.yul\":2694:2712   */\n      0xffffffffffffffff\n        /* \"#utility.yul\":2679:2713   */\n      dup2\n      gt\n        /* \"#utility.yul\":2715:2737   */\n      dup3\n      dup3\n      lt\n        /* \"#utility.yul\":2676:2738   */\n      or\n        /* \"#utility.yul\":2673:2761   */\n      iszero\n      tag_103\n      jumpi\n        /* \"#utility.yul\":2741:2759   */\n      tag_103\n      tag_72\n      jump\t// in\n    tag_103:\n        /* \"#utility.yul\":2777:2781   */\n      0x40\n        /* \"#utility.yul\":2770:2794   */\n      mstore\n        /* \"#utility.yul\":2543:2800   */\n      swap1\n      jump\t// out\n        /* \"#utility.yul\":2805:3058   */\n    tag_74:\n        /* \"#utility.yul\":2877:2879   */\n      0x40\n        /* \"#utility.yul\":2871:2880   */\n      mload\n        /* \"#utility.yul\":2919:2923   */\n      0xa0\n        /* \"#utility.yul\":2907:2924   */\n      dup2\n      add\n        /* \"#utility.yul\":2954:2972   */\n      0xffffffffffffffff\n        /* \"#utility.yul\":2939:2973   */\n      dup2\n      gt\n        /* \"#utility.yul\":2975:2997   */\n      dup3\n      dup3\n      lt\n        /* \"#utility.yul\":2936:2998   */\n      or\n        /* \"#utility.yul\":2933:3021   */\n      iszero\n      tag_103\n      jumpi\n        /* \"#utility.yul\":3001:3019   */\n      tag_103\n      tag_72\n      jump\t// in\n        /* \"#utility.yul\":3063:3338   */\n    tag_75:\n        /* \"#utility.yul\":3134:3136   */\n      0x40\n        /* \"#utility.yul\":3128:3137   */\n      mload\n        /* \"#utility.yul\":3199:3201   */\n      0x1f\n        /* \"#utility.yul\":3180:3193   */\n      dup3\n      add\n      not(0x1f)\n        /* \"#utility.yul\":3176:3203   */\n      and\n        /* \"#utility.yul\":3164:3204   */\n      dup2\n      add\n        /* \"#utility.yul\":3234:3252   */\n      0xffffffffffffffff\n        /* \"#utility.yul\":3219:3253   */\n      dup2\n      gt\n        /* \"#utility.yul\":3255:3277   */\n      dup3\n      dup3\n      lt\n        /* \"#utility.yul\":3216:3278   */\n      or\n        /* \"#utility.yul\":3213:3301   */\n      iszero\n      tag_109\n      jumpi\n        /* \"#utility.yul\":3281:3299   */\n      tag_109\n      tag_72\n      jump\t// in\n    tag_109:\n        /* \"#utility.yul\":3317:3319   */\n      0x40\n        /* \"#utility.yul\":3310:3332   */\n      mstore\n        /* \"#utility.yul\":3063:3338   */\n      swap2\n      swap1\n      pop\n      jump\t// out\n        /* \"#utility.yul\":3343:3514   */\n    tag_76:\n        /* \"#utility.yul\":3410:3430   */\n      dup1\n      calldataload\n        /* \"#utility.yul\":3470:3488   */\n      0xffffffffffffffff\n        /* \"#utility.yul\":3459:3489   */\n      dup2\n      and\n        /* \"#utility.yul\":3449:3490   */\n      dup2\n      eq\n        /* \"#utility.yul\":3439:3508   */\n      tag_86\n      jumpi\n        /* \"#utility.yul\":3504:3505   */\n      0x00\n        /* \"#utility.yul\":3501:3502   */\n      dup1\n        /* \"#utility.yul\":3494:3506   */\n      revert\n        /* \"#utility.yul\":3519:4049   */\n    tag_77:\n        /* \"#utility.yul\":3561:3566   */\n      0x00\n        /* \"#utility.yul\":3614:3617   */\n      dup3\n        /* \"#utility.yul\":3607:3611   */\n      0x1f\n        /* \"#utility.yul\":3599:3605   */\n      dup4\n        /* \"#utility.yul\":3595:3612   */\n      add\n        /* \"#utility.yul\":3591:3618   */\n      slt\n        /* \"#utility.yul\":3581:3636   */\n      tag_113\n      jumpi\n        /* \"#utility.yul\":3632:3633   */\n      0x00\n        /* \"#utility.yul\":3629:3630   */\n      dup1\n        /* \"#utility.yul\":3622:3634   */\n      revert\n        /* \"#utility.yul\":3581:3636   */\n    tag_113:\n        /* \"#utility.yul\":3668:3674   */\n      dup2\n        /* \"#utility.yul\":3655:3675   */\n      calldataload\n        /* \"#utility.yul\":3694:3712   */\n      0xffffffffffffffff\n        /* \"#utility.yul\":3690:3692   */\n      dup2\n        /* \"#utility.yul\":3687:3713   */\n      gt\n        /* \"#utility.yul\":3684:3736   */\n      iszero\n      tag_115\n      jumpi\n        /* \"#utility.yul\":3716:3734   */\n      tag_115\n      tag_72\n      jump\t// in\n    tag_115:\n        /* \"#utility.yul\":3760:3815   */\n      tag_116\n        /* \"#utility.yul\":3803:3805   */\n      0x1f\n        /* \"#utility.yul\":3784:3797   */\n      dup3\n      add\n      not(0x1f)\n        /* \"#utility.yul\":3780:3807   */\n      and\n        /* \"#utility.yul\":3809:3813   */\n      0x20\n        /* \"#utility.yul\":3776:3814   */\n      add\n        /* \"#utility.yul\":3760:3815   */\n      tag_75\n      jump\t// in\n    tag_116:\n        /* \"#utility.yul\":3840:3842   */\n      dup2\n        /* \"#utility.yul\":3831:3838   */\n      dup2\n        /* \"#utility.yul\":3824:3843   */\n      mstore\n        /* \"#utility.yul\":3886:3889   */\n      dup5\n        /* \"#utility.yul\":3879:3883   */\n      0x20\n        /* \"#utility.yul\":3874:3876   */\n      dup4\n        /* \"#utility.yul\":3866:3872   */\n      dup7\n        /* \"#utility.yul\":3862:3877   */\n      add\n        /* \"#utility.yul\":3858:3884   */\n      add\n        /* \"#utility.yul\":3855:3890   */\n      gt\n        /* \"#utility.yul\":3852:3907   */\n      iszero\n      tag_117\n      jumpi\n        /* \"#utility.yul\":3903:3904   */\n      0x00\n        /* \"#utility.yul\":3900:3901   */\n      dup1\n        /* \"#utility.yul\":3893:3905   */\n      revert\n        /* \"#utility.yul\":3852:3907   */\n    tag_117:\n        /* \"#utility.yul\":3968:3970   */\n      dup2\n        /* \"#utility.yul\":3961:3965   */\n      0x20\n        /* \"#utility.yul\":3953:3959   */\n      dup6\n        /* \"#utility.yul\":3949:3966   */\n      add\n        /* \"#utility.yul\":3942:3946   */\n      0x20\n        /* \"#utility.yul\":3933:3940   */\n      dup4\n        /* \"#utility.yul\":3929:3947   */\n      add\n        /* \"#utility.yul\":3916:3971   */\n      calldatacopy\n        /* \"#utility.yul\":4016:4017   */\n      0x00\n        /* \"#utility.yul\":3991:4007   */\n      swap2\n      dup2\n      add\n        /* \"#utility.yul\":4009:4013   */\n      0x20\n        /* \"#utility.yul\":3987:4014   */\n      add\n        /* \"#utility.yul\":3980:4018   */\n      swap2\n      swap1\n      swap2\n      mstore\n        /* \"#utility.yul\":3995:4002   */\n      swap4\n        /* \"#utility.yul\":3519:4049   */\n      swap3\n      pop\n      pop\n      pop\n      jump\t// out\n        /* \"#utility.yul\":4054:5046   */\n    tag_78:\n        /* \"#utility.yul\":4122:4127   */\n      0x00\n        /* \"#utility.yul\":4175:4178   */\n      dup3\n        /* \"#utility.yul\":4168:4172   */\n      0x1f\n        /* \"#utility.yul\":4160:4166   */\n      dup4\n        /* \"#utility.yul\":4156:4173   */\n      add\n        /* \"#utility.yul\":4152:4179   */\n      slt\n        /* \"#utility.yul\":4142:4197   */\n      tag_119\n      jumpi\n        /* \"#utility.yul\":4193:4194   */\n      0x00\n        /* \"#utility.yul\":4190:4191   */\n      dup1\n        /* \"#utility.yul\":4183:4195   */\n      revert\n        /* \"#utility.yul\":4142:4197   */\n    tag_119:\n        /* \"#utility.yul\":4229:4235   */\n      dup2\n        /* \"#utility.yul\":4216:4236   */\n      calldataload\n        /* \"#utility.yul\":4255:4259   */\n      0x20\n        /* \"#utility.yul\":4278:4296   */\n      0xffffffffffffffff\n        /* \"#utility.yul\":4274:4276   */\n      dup3\n        /* \"#utility.yul\":4271:4297   */\n      gt\n        /* \"#utility.yul\":4268:4320   */\n      iszero\n      tag_121\n      jumpi\n        /* \"#utility.yul\":4300:4318   */\n      tag_121\n      tag_72\n      jump\t// in\n    tag_121:\n        /* \"#utility.yul\":4340:4376   */\n      tag_122\n        /* \"#utility.yul\":4372:4374   */\n      dup2\n        /* \"#utility.yul\":4367:4369   */\n      dup4\n        /* \"#utility.yul\":4364:4365   */\n      0x05\n        /* \"#utility.yul\":4360:4370   */\n      shl\n        /* \"#utility.yul\":4356:4375   */\n      add\n        /* \"#utility.yul\":4340:4376   */\n      tag_75\n      jump\t// in\n    tag_122:\n        /* \"#utility.yul\":4410:4425   */\n      dup3\n      dup2\n      mstore\n        /* \"#utility.yul\":4496:4497   */\n      0x06\n        /* \"#utility.yul\":4492:4502   */\n      swap3\n      swap1\n      swap3\n      shl\n        /* \"#utility.yul\":4480:4503   */\n      dup5\n      add\n        /* \"#utility.yul\":4476:4508   */\n      dup2\n      add\n      swap2\n        /* \"#utility.yul\":4441:4453   */\n      dup2\n      dup2\n      add\n      swap1\n        /* \"#utility.yul\":4520:4535   */\n      dup7\n      dup5\n      gt\n        /* \"#utility.yul\":4517:4552   */\n      iszero\n      tag_123\n      jumpi\n        /* \"#utility.yul\":4548:4549   */\n      0x00\n        /* \"#utility.yul\":4545:4546   */\n      dup1\n        /* \"#utility.yul\":4538:4550   */\n      revert\n        /* \"#utility.yul\":4517:4552   */\n    tag_123:\n        /* \"#utility.yul\":4584:4586   */\n      dup3\n        /* \"#utility.yul\":4576:4582   */\n      dup7\n        /* \"#utility.yul\":4572:4587   */\n      add\n        /* \"#utility.yul\":4596:5017   */\n    tag_124:\n        /* \"#utility.yul\":4612:4618   */\n      dup5\n        /* \"#utility.yul\":4607:4610   */\n      dup2\n        /* \"#utility.yul\":4604:4619   */\n      lt\n        /* \"#utility.yul\":4596:5017   */\n      iszero\n      tag_126\n      jumpi\n        /* \"#utility.yul\":4690:4694   */\n      0x40\n        /* \"#utility.yul\":4684:4687   */\n      dup2\n        /* \"#utility.yul\":4679:4682   */\n      dup10\n        /* \"#utility.yul\":4675:4688   */\n      sub\n        /* \"#utility.yul\":4671:4695   */\n      slt\n        /* \"#utility.yul\":4668:4782   */\n      iszero\n      tag_127\n      jumpi\n        /* \"#utility.yul\":4736:4737   */\n      0x00\n        /* \"#utility.yul\":4765:4767   */\n      dup1\n        /* \"#utility.yul\":4761:4763   */\n      dup2\n        /* \"#utility.yul\":4754:4768   */\n      revert\n        /* \"#utility.yul\":4668:4782   */\n    tag_127:\n        /* \"#utility.yul\":4808:4830   */\n      tag_128\n      tag_73\n      jump\t// in\n    tag_128:\n        /* \"#utility.yul\":4857:4880   */\n      tag_129\n        /* \"#utility.yul\":4876:4879   */\n      dup3\n        /* \"#utility.yul\":4857:4880   */\n      tag_71\n      jump\t// in\n    tag_129:\n        /* \"#utility.yul\":4843:4881   */\n      dup2\n      mstore\n        /* \"#utility.yul\":4930:4942   */\n      dup2\n      dup6\n      add\n        /* \"#utility.yul\":4917:4943   */\n      calldataload\n        /* \"#utility.yul\":4901:4915   */\n      dup6\n      dup3\n      add\n        /* \"#utility.yul\":4894:4944   */\n      mstore\n        /* \"#utility.yul\":4957:4975   */\n      dup4\n      mstore\n        /* \"#utility.yul\":4995:5007   */\n      swap2\n      dup4\n      add\n      swap2\n        /* \"#utility.yul\":4638:4642   */\n      0x40\n        /* \"#utility.yul\":4629:4643   */\n      add\n        /* \"#utility.yul\":4596:5017   */\n      jump(tag_124)\n    tag_126:\n      pop\n        /* \"#utility.yul\":5035:5040   */\n      swap7\n        /* \"#utility.yul\":4054:5046   */\n      swap6\n      pop\n      pop\n      pop\n      pop\n      pop\n      pop\n      jump\t// out\n        /* \"#utility.yul\":5051:6060   */\n    tag_56:\n        /* \"#utility.yul\":5165:5174   */\n      0x00\n        /* \"#utility.yul\":5224:5228   */\n      0xa0\n        /* \"#utility.yul\":5216:5221   */\n      dup3\n        /* \"#utility.yul\":5200:5214   */\n      calldatasize\n        /* \"#utility.yul\":5196:5222   */\n      sub\n        /* \"#utility.yul\":5192:5229   */\n      slt\n        /* \"#utility.yul\":5189:5246   */\n      iszero\n      tag_131\n      jumpi\n        /* \"#utility.yul\":5242:5243   */\n      0x00\n        /* \"#utility.yul\":5239:5240   */\n      dup1\n        /* \"#utility.yul\":5232:5244   */\n      revert\n        /* \"#utility.yul\":5189:5246   */\n    tag_131:\n        /* \"#utility.yul\":5270:5292   */\n      tag_132\n      tag_74\n      jump\t// in\n    tag_132:\n        /* \"#utility.yul\":5330:5335   */\n      dup3\n        /* \"#utility.yul\":5317:5336   */\n      calldataload\n        /* \"#utility.yul\":5308:5315   */\n      dup2\n        /* \"#utility.yul\":5301:5337   */\n      mstore\n        /* \"#utility.yul\":5371:5404   */\n      tag_133\n        /* \"#utility.yul\":5400:5402   */\n      0x20\n        /* \"#utility.yul\":5393:5398   */\n      dup5\n        /* \"#utility.yul\":5389:5403   */\n      add\n        /* \"#utility.yul\":5371:5404   */\n      tag_76\n      jump\t// in\n    tag_133:\n        /* \"#utility.yul\":5366:5368   */\n      0x20\n        /* \"#utility.yul\":5357:5364   */\n      dup3\n        /* \"#utility.yul\":5353:5369   */\n      add\n        /* \"#utility.yul\":5346:5405   */\n      mstore\n        /* \"#utility.yul\":5452:5454   */\n      0x40\n        /* \"#utility.yul\":5445:5450   */\n      dup4\n        /* \"#utility.yul\":5441:5455   */\n      add\n        /* \"#utility.yul\":5428:5456   */\n      calldataload\n        /* \"#utility.yul\":5475:5493   */\n      0xffffffffffffffff\n        /* \"#utility.yul\":5516:5518   */\n      dup1\n        /* \"#utility.yul\":5508:5514   */\n      dup3\n        /* \"#utility.yul\":5505:5519   */\n      gt\n        /* \"#utility.yul\":5502:5536   */\n      iszero\n      tag_134\n      jumpi\n        /* \"#utility.yul\":5532:5533   */\n      0x00\n        /* \"#utility.yul\":5529:5530   */\n      dup1\n        /* \"#utility.yul\":5522:5534   */\n      revert\n        /* \"#utility.yul\":5502:5536   */\n    tag_134:\n        /* \"#utility.yul\":5570:5622   */\n      tag_135\n        /* \"#utility.yul\":5607:5621   */\n      calldatasize\n        /* \"#utility.yul\":5598:5604   */\n      dup4\n        /* \"#utility.yul\":5591:5596   */\n      dup8\n        /* \"#utility.yul\":5587:5605   */\n      add\n        /* \"#utility.yul\":5570:5622   */\n      tag_77\n      jump\t// in\n    tag_135:\n        /* \"#utility.yul\":5565:5567   */\n      0x40\n        /* \"#utility.yul\":5556:5563   */\n      dup5\n        /* \"#utility.yul\":5552:5568   */\n      add\n        /* \"#utility.yul\":5545:5623   */\n      mstore\n        /* \"#utility.yul\":5672:5674   */\n      0x60\n        /* \"#utility.yul\":5665:5670   */\n      dup6\n        /* \"#utility.yul\":5661:5675   */\n      add\n        /* \"#utility.yul\":5648:5676   */\n      calldataload\n        /* \"#utility.yul\":5632:5676   */\n      swap2\n      pop\n        /* \"#utility.yul\":5701:5703   */\n      dup1\n        /* \"#utility.yul\":5691:5699   */\n      dup3\n        /* \"#utility.yul\":5688:5704   */\n      gt\n        /* \"#utility.yul\":5685:5721   */\n      iszero\n      tag_136\n      jumpi\n        /* \"#utility.yul\":5717:5718   */\n      0x00\n        /* \"#utility.yul\":5714:5715   */\n      dup1\n        /* \"#utility.yul\":5707:5719   */\n      revert\n        /* \"#utility.yul\":5685:5721   */\n    tag_136:\n        /* \"#utility.yul\":5755:5809   */\n      tag_137\n        /* \"#utility.yul\":5794:5808   */\n      calldatasize\n        /* \"#utility.yul\":5783:5791   */\n      dup4\n        /* \"#utility.yul\":5776:5781   */\n      dup8\n        /* \"#utility.yul\":5772:5792   */\n      add\n        /* \"#utility.yul\":5755:5809   */\n      tag_77\n      jump\t// in\n    tag_137:\n        /* \"#utility.yul\":5750:5752   */\n      0x60\n        /* \"#utility.yul\":5741:5748   */\n      dup5\n        /* \"#utility.yul\":5737:5753   */\n      add\n        /* \"#utility.yul\":5730:5810   */\n      mstore\n        /* \"#utility.yul\":5859:5862   */\n      0x80\n        /* \"#utility.yul\":5852:5857   */\n      dup6\n        /* \"#utility.yul\":5848:5863   */\n      add\n        /* \"#utility.yul\":5835:5864   */\n      calldataload\n        /* \"#utility.yul\":5819:5864   */\n      swap2\n      pop\n        /* \"#utility.yul\":5889:5891   */\n      dup1\n        /* \"#utility.yul\":5879:5887   */\n      dup3\n        /* \"#utility.yul\":5876:5892   */\n      gt\n        /* \"#utility.yul\":5873:5909   */\n      iszero\n      tag_138\n      jumpi\n        /* \"#utility.yul\":5905:5906   */\n      0x00\n        /* \"#utility.yul\":5902:5903   */\n      dup1\n        /* \"#utility.yul\":5895:5907   */\n      revert\n        /* \"#utility.yul\":5873:5909   */\n    tag_138:\n      pop\n        /* \"#utility.yul\":5944:6024   */\n      tag_139\n        /* \"#utility.yul\":6009:6023   */\n      calldatasize\n        /* \"#utility.yul\":5998:6006   */\n      dup3\n        /* \"#utility.yul\":5991:5996   */\n      dup7\n        /* \"#utility.yul\":5987:6007   */\n      add\n        /* \"#utility.yul\":5944:6024   */\n      tag_78\n      jump\t// in\n    tag_139:\n        /* \"#utility.yul\":5938:5941   */\n      0x80\n        /* \"#utility.yul\":5925:5942   */\n      dup4\n      add\n        /* \"#utility.yul\":5918:6025   */\n      mstore\n      pop\n        /* \"#utility.yul\":5929:5936   */\n      swap3\n        /* \"#utility.yul\":5051:6060   */\n      swap2\n      pop\n      pop\n      jump\t// out\n\n    auxdata: 0xa2646970667358221220627d9d0b7f90ad2da6debe6b48047a48d0660f265892b4eeebdc3b8d1e0a3d4164736f6c63430008130033\n}\n",
				"bytecode": {
					"linkReferences": {},
					"object": "60a0604052600180546001600160a01b031916730bf3de8c5d3e8a2b34d2beeb17abfcebaf363a5917905534801561003657600080fd5b506040516107ce3803806107ce833981016040819052610055916100b1565b6001546001600160a01b031680610086576040516335fdcccd60e21b81526000600482015260240160405180910390fd5b6001600160a01b03908116608052600080546001600160a01b031916929091169190911790556100e1565b6000602082840312156100c357600080fd5b81516001600160a01b03811681146100da57600080fd5b9392505050565b6080516106cb6101036000396000818161012c015261027001526106cb6000f3fe608060405234801561001057600080fd5b506004361061007d5760003560e01c80635be68e931161005b5780635be68e93146100df57806385572ffb1461010f5780639642ddaf14610122578063b0f479a11461012a57600080fd5b806301ffc9a71461008257806308076601146100aa57806347ccca02146100b4575b600080fd5b610095610090366004610350565b610150565b60405190151581526020015b60405180910390f35b6100b2610187565b005b6000546100c7906001600160a01b031681565b6040516001600160a01b0390911681526020016100a1565b6100b26100ed36600461039d565b600080546001600160a01b0319166001600160a01b0392909216919091179055565b6100b261011d3660046103b8565b610265565b6100b26102c8565b7f00000000000000000000000000000000000000000000000000000000000000006100c7565b60006001600160e01b031982166385572ffb60e01b148061018157506001600160e01b031982166301ffc9a760e01b145b92915050565b6040513360248201526000604482015260609060640160408051601f198184030181529181526020820180516001600160e01b0316631cc7485960e01b179052600080549151929350916001600160a01b03909116906101e89084906103f3565b6000604051808303816000865af19150503d8060008114610225576040519150601f19603f3d011682016040523d82523d6000602084013e61022a565b606091505b505090508061023857600080fd5b6040517fa8bcb6a278444293ea5c0bce4a4734a060a5f557bb999d8a57c4f69e96f1fe8890600090a15050565b336001600160a01b037f000000000000000000000000000000000000000000000000000000000000000016146102b4576040516335fdcccd60e21b815233600482015260240160405180910390fd5b6102c56102c0826105e8565b61032e565b50565b60008054604051631cc7485960e01b815233600482015260248101929092526001600160a01b031690631cc7485990604401600060405180830381600087803b15801561031457600080fd5b505af1158015610328573d6000803e3d6000fd5b50505050565b6000805460608301516040516001600160a01b03909216916101e891906103f3565b60006020828403121561036257600080fd5b81356001600160e01b03198116811461037a57600080fd5b9392505050565b80356001600160a01b038116811461039857600080fd5b919050565b6000602082840312156103af57600080fd5b61037a82610381565b6000602082840312156103ca57600080fd5b813567ffffffffffffffff8111156103e157600080fd5b820160a0818503121561037a57600080fd5b6000825160005b8181101561041457602081860181015185830152016103fa565b506000920191825250919050565b634e487b7160e01b600052604160045260246000fd5b6040805190810167ffffffffffffffff8111828210171561045b5761045b610422565b60405290565b60405160a0810167ffffffffffffffff8111828210171561045b5761045b610422565b604051601f8201601f1916810167ffffffffffffffff811182821017156104ad576104ad610422565b604052919050565b803567ffffffffffffffff8116811461039857600080fd5b600082601f8301126104de57600080fd5b813567ffffffffffffffff8111156104f8576104f8610422565b61050b601f8201601f1916602001610484565b81815284602083860101111561052057600080fd5b816020850160208301376000918101602001919091529392505050565b600082601f83011261054e57600080fd5b8135602067ffffffffffffffff82111561056a5761056a610422565b610578818360051b01610484565b82815260069290921b8401810191818101908684111561059757600080fd5b8286015b848110156105dd57604081890312156105b45760008081fd5b6105bc610438565b6105c582610381565b8152818501358582015283529183019160400161059b565b509695505050505050565b600060a082360312156105fa57600080fd5b610602610461565b82358152610612602084016104b5565b6020820152604083013567ffffffffffffffff8082111561063257600080fd5b61063e368387016104cd565b6040840152606085013591508082111561065757600080fd5b610663368387016104cd565b6060840152608085013591508082111561067c57600080fd5b506106893682860161053d565b6080830152509291505056fea2646970667358221220627d9d0b7f90ad2da6debe6b48047a48d0660f265892b4eeebdc3b8d1e0a3d4164736f6c63430008130033",
					"opcodes": "PUSH1 0xA0 PUSH1 0x40 MSTORE PUSH1 0x1 DUP1 SLOAD PUSH1 0x1 PUSH1 0x1 PUSH1 0xA0 SHL SUB NOT AND PUSH20 0xBF3DE8C5D3E8A2B34D2BEEB17ABFCEBAF363A59 OR SWAP1 SSTORE CALLVALUE DUP1 ISZERO PUSH2 0x36 JUMPI PUSH1 0x0 DUP1 REVERT JUMPDEST POP PUSH1 0x40 MLOAD PUSH2 0x7CE CODESIZE SUB DUP1 PUSH2 0x7CE DUP4 CODECOPY DUP2 ADD PUSH1 0x40 DUP2 SWAP1 MSTORE PUSH2 0x55 SWAP2 PUSH2 0xB1 JUMP JUMPDEST PUSH1 0x1 SLOAD PUSH1 0x1 PUSH1 0x1 PUSH1 0xA0 SHL SUB AND DUP1 PUSH2 0x86 JUMPI PUSH1 0x40 MLOAD PUSH4 0x35FDCCCD PUSH1 0xE2 SHL DUP2 MSTORE PUSH1 0x0 PUSH1 0x4 DUP3 ADD MSTORE PUSH1 0x24 ADD PUSH1 0x40 MLOAD DUP1 SWAP2 SUB SWAP1 REVERT JUMPDEST PUSH1 0x1 PUSH1 0x1 PUSH1 0xA0 SHL SUB SWAP1 DUP2 AND PUSH1 0x80 MSTORE PUSH1 0x0 DUP1 SLOAD PUSH1 0x1 PUSH1 0x1 PUSH1 0xA0 SHL SUB NOT AND SWAP3 SWAP1 SWAP2 AND SWAP2 SWAP1 SWAP2 OR SWAP1 SSTORE PUSH2 0xE1 JUMP JUMPDEST PUSH1 0x0 PUSH1 0x20 DUP3 DUP5 SUB SLT ISZERO PUSH2 0xC3 JUMPI PUSH1 0x0 DUP1 REVERT JUMPDEST DUP2 MLOAD PUSH1 0x1 PUSH1 0x1 PUSH1 0xA0 SHL SUB DUP2 AND DUP2 EQ PUSH2 0xDA JUMPI PUSH1 0x0 DUP1 REVERT JUMPDEST SWAP4 SWAP3 POP POP POP JUMP JUMPDEST PUSH1 0x80 MLOAD PUSH2 0x6CB PUSH2 0x103 PUSH1 0x0 CODECOPY PUSH1 0x0 DUP2 DUP2 PUSH2 0x12C ADD MSTORE PUSH2 0x270 ADD MSTORE PUSH2 0x6CB PUSH1 0x0 RETURN INVALID PUSH1 0x80 PUSH1 0x40 MSTORE CALLVALUE DUP1 ISZERO PUSH2 0x10 JUMPI PUSH1 0x0 DUP1 REVERT JUMPDEST POP PUSH1 0x4 CALLDATASIZE LT PUSH2 0x7D JUMPI PUSH1 0x0 CALLDATALOAD PUSH1 0xE0 SHR DUP1 PUSH4 0x5BE68E93 GT PUSH2 0x5B JUMPI DUP1 PUSH4 0x5BE68E93 EQ PUSH2 0xDF JUMPI DUP1 PUSH4 0x85572FFB EQ PUSH2 0x10F JUMPI DUP1 PUSH4 0x9642DDAF EQ PUSH2 0x122 JUMPI DUP1 PUSH4 0xB0F479A1 EQ PUSH2 0x12A JUMPI PUSH1 0x0 DUP1 REVERT JUMPDEST DUP1 PUSH4 0x1FFC9A7 EQ PUSH2 0x82 JUMPI DUP1 PUSH4 0x8076601 EQ PUSH2 0xAA JUMPI DUP1 PUSH4 0x47CCCA02 EQ PUSH2 0xB4 JUMPI JUMPDEST PUSH1 0x0 DUP1 REVERT JUMPDEST PUSH2 0x95 PUSH2 0x90 CALLDATASIZE PUSH1 0x4 PUSH2 0x350 JUMP JUMPDEST PUSH2 0x150 JUMP JUMPDEST PUSH1 0x40 MLOAD SWAP1 ISZERO ISZERO DUP2 MSTORE PUSH1 0x20 ADD JUMPDEST PUSH1 0x40 MLOAD DUP1 SWAP2 SUB SWAP1 RETURN JUMPDEST PUSH2 0xB2 PUSH2 0x187 JUMP JUMPDEST STOP JUMPDEST PUSH1 0x0 SLOAD PUSH2 0xC7 SWAP1 PUSH1 0x1 PUSH1 0x1 PUSH1 0xA0 SHL SUB AND DUP2 JUMP JUMPDEST PUSH1 0x40 MLOAD PUSH1 0x1 PUSH1 0x1 PUSH1 0xA0 SHL SUB SWAP1 SWAP2 AND DUP2 MSTORE PUSH1 0x20 ADD PUSH2 0xA1 JUMP JUMPDEST PUSH2 0xB2 PUSH2 0xED CALLDATASIZE PUSH1 0x4 PUSH2 0x39D JUMP JUMPDEST PUSH1 0x0 DUP1 SLOAD PUSH1 0x1 PUSH1 0x1 PUSH1 0xA0 SHL SUB NOT AND PUSH1 0x1 PUSH1 0x1 PUSH1 0xA0 SHL SUB SWAP3 SWAP1 SWAP3 AND SWAP2 SWAP1 SWAP2 OR SWAP1 SSTORE JUMP JUMPDEST PUSH2 0xB2 PUSH2 0x11D CALLDATASIZE PUSH1 0x4 PUSH2 0x3B8 JUMP JUMPDEST PUSH2 0x265 JUMP JUMPDEST PUSH2 0xB2 PUSH2 0x2C8 JUMP JUMPDEST PUSH32 0x0 PUSH2 0xC7 JUMP JUMPDEST PUSH1 0x0 PUSH1 0x1 PUSH1 0x1 PUSH1 0xE0 SHL SUB NOT DUP3 AND PUSH4 0x85572FFB PUSH1 0xE0 SHL EQ DUP1 PUSH2 0x181 JUMPI POP PUSH1 0x1 PUSH1 0x1 PUSH1 0xE0 SHL SUB NOT DUP3 AND PUSH4 0x1FFC9A7 PUSH1 0xE0 SHL EQ JUMPDEST SWAP3 SWAP2 POP POP JUMP JUMPDEST PUSH1 0x40 MLOAD CALLER PUSH1 0x24 DUP3 ADD MSTORE PUSH1 0x0 PUSH1 0x44 DUP3 ADD MSTORE PUSH1 0x60 SWAP1 PUSH1 0x64 ADD PUSH1 0x40 DUP1 MLOAD PUSH1 0x1F NOT DUP2 DUP5 SUB ADD DUP2 MSTORE SWAP2 DUP2 MSTORE PUSH1 0x20 DUP3 ADD DUP1 MLOAD PUSH1 0x1 PUSH1 0x1 PUSH1 0xE0 SHL SUB AND PUSH4 0x1CC74859 PUSH1 0xE0 SHL OR SWAP1 MSTORE PUSH1 0x0 DUP1 SLOAD SWAP2 MLOAD SWAP3 SWAP4 POP SWAP2 PUSH1 0x1 PUSH1 0x1 PUSH1 0xA0 SHL SUB SWAP1 SWAP2 AND SWAP1 PUSH2 0x1E8 SWAP1 DUP5 SWAP1 PUSH2 0x3F3 JUMP JUMPDEST PUSH1 0x0 PUSH1 0x40 MLOAD DUP1 DUP4 SUB DUP2 PUSH1 0x0 DUP7 GAS CALL SWAP2 POP POP RETURNDATASIZE DUP1 PUSH1 0x0 DUP2 EQ PUSH2 0x225 JUMPI PUSH1 0x40 MLOAD SWAP2 POP PUSH1 0x1F NOT PUSH1 0x3F RETURNDATASIZE ADD AND DUP3 ADD PUSH1 0x40 MSTORE RETURNDATASIZE DUP3 MSTORE RETURNDATASIZE PUSH1 0x0 PUSH1 0x20 DUP5 ADD RETURNDATACOPY PUSH2 0x22A JUMP JUMPDEST PUSH1 0x60 SWAP2 POP JUMPDEST POP POP SWAP1 POP DUP1 PUSH2 0x238 JUMPI PUSH1 0x0 DUP1 REVERT JUMPDEST PUSH1 0x40 MLOAD PUSH32 0xA8BCB6A278444293EA5C0BCE4A4734A060A5F557BB999D8A57C4F69E96F1FE88 SWAP1 PUSH1 0x0 SWAP1 LOG1 POP POP JUMP JUMPDEST CALLER PUSH1 0x1 PUSH1 0x1 PUSH1 0xA0 SHL SUB PUSH32 0x0 AND EQ PUSH2 0x2B4 JUMPI PUSH1 0x40 MLOAD PUSH4 0x35FDCCCD PUSH1 0xE2 SHL DUP2 MSTORE CALLER PUSH1 0x4 DUP3 ADD MSTORE PUSH1 0x24 ADD PUSH1 0x40 MLOAD DUP1 SWAP2 SUB SWAP1 REVERT JUMPDEST PUSH2 0x2C5 PUSH2 0x2C0 DUP3 PUSH2 0x5E8 JUMP JUMPDEST PUSH2 0x32E JUMP JUMPDEST POP JUMP JUMPDEST PUSH1 0x0 DUP1 SLOAD PUSH1 0x40 MLOAD PUSH4 0x1CC74859 PUSH1 0xE0 SHL DUP2 MSTORE CALLER PUSH1 0x4 DUP3 ADD MSTORE PUSH1 0x24 DUP2 ADD SWAP3 SWAP1 SWAP3 MSTORE PUSH1 0x1 PUSH1 0x1 PUSH1 0xA0 SHL SUB AND SWAP1 PUSH4 0x1CC74859 SWAP1 PUSH1 0x44 ADD PUSH1 0x0 PUSH1 0x40 MLOAD DUP1 DUP4 SUB DUP2 PUSH1 0x0 DUP8 DUP1 EXTCODESIZE ISZERO DUP1 ISZERO PUSH2 0x314 JUMPI PUSH1 0x0 DUP1 REVERT JUMPDEST POP GAS CALL ISZERO DUP1 ISZERO PUSH2 0x328 JUMPI RETURNDATASIZE PUSH1 0x0 DUP1 RETURNDATACOPY RETURNDATASIZE PUSH1 0x0 REVERT JUMPDEST POP POP POP POP JUMP JUMPDEST PUSH1 0x0 DUP1 SLOAD PUSH1 0x60 DUP4 ADD MLOAD PUSH1 0x40 MLOAD PUSH1 0x1 PUSH1 0x1 PUSH1 0xA0 SHL SUB SWAP1 SWAP3 AND SWAP2 PUSH2 0x1E8 SWAP2 SWAP1 PUSH2 0x3F3 JUMP JUMPDEST PUSH1 0x0 PUSH1 0x20 DUP3 DUP5 SUB SLT ISZERO PUSH2 0x362 JUMPI PUSH1 0x0 DUP1 REVERT JUMPDEST DUP2 CALLDATALOAD PUSH1 0x1 PUSH1 0x1 PUSH1 0xE0 SHL SUB NOT DUP2 AND DUP2 EQ PUSH2 0x37A JUMPI PUSH1 0x0 DUP1 REVERT JUMPDEST SWAP4 SWAP3 POP POP POP JUMP JUMPDEST DUP1 CALLDATALOAD PUSH1 0x1 PUSH1 0x1 PUSH1 0xA0 SHL SUB DUP2 AND DUP2 EQ PUSH2 0x398 JUMPI PUSH1 0x0 DUP1 REVERT JUMPDEST SWAP2 SWAP1 POP JUMP JUMPDEST PUSH1 0x0 PUSH1 0x20 DUP3 DUP5 SUB SLT ISZERO PUSH2 0x3AF JUMPI PUSH1 0x0 DUP1 REVERT JUMPDEST PUSH2 0x37A DUP3 PUSH2 0x381 JUMP JUMPDEST PUSH1 0x0 PUSH1 0x20 DUP3 DUP5 SUB SLT ISZERO PUSH2 0x3CA JUMPI PUSH1 0x0 DUP1 REVERT JUMPDEST DUP2 CALLDATALOAD PUSH8 0xFFFFFFFFFFFFFFFF DUP2 GT ISZERO PUSH2 0x3E1 JUMPI PUSH1 0x0 DUP1 REVERT JUMPDEST DUP3 ADD PUSH1 0xA0 DUP2 DUP6 SUB SLT ISZERO PUSH2 0x37A JUMPI PUSH1 0x0 DUP1 REVERT JUMPDEST PUSH1 0x0 DUP3 MLOAD PUSH1 0x0 JUMPDEST DUP2 DUP2 LT ISZERO PUSH2 0x414 JUMPI PUSH1 0x20 DUP2 DUP7 ADD DUP2 ADD MLOAD DUP6 DUP4 ADD MSTORE ADD PUSH2 0x3FA JUMP JUMPDEST POP PUSH1 0x0 SWAP3 ADD SWAP2 DUP3 MSTORE POP SWAP2 SWAP1 POP JUMP JUMPDEST PUSH4 0x4E487B71 PUSH1 0xE0 SHL PUSH1 0x0 MSTORE PUSH1 0x41 PUSH1 0x4 MSTORE PUSH1 0x24 PUSH1 0x0 REVERT JUMPDEST PUSH1 0x40 DUP1 MLOAD SWAP1 DUP2 ADD PUSH8 0xFFFFFFFFFFFFFFFF DUP2 GT DUP3 DUP3 LT OR ISZERO PUSH2 0x45B JUMPI PUSH2 0x45B PUSH2 0x422 JUMP JUMPDEST PUSH1 0x40 MSTORE SWAP1 JUMP JUMPDEST PUSH1 0x40 MLOAD PUSH1 0xA0 DUP2 ADD PUSH8 0xFFFFFFFFFFFFFFFF DUP2 GT DUP3 DUP3 LT OR ISZERO PUSH2 0x45B JUMPI PUSH2 0x45B PUSH2 0x422 JUMP JUMPDEST PUSH1 0x40 MLOAD PUSH1 0x1F DUP3 ADD PUSH1 0x1F NOT AND DUP2 ADD PUSH8 0xFFFFFFFFFFFFFFFF DUP2 GT DUP3 DUP3 LT OR ISZERO PUSH2 0x4AD JUMPI PUSH2 0x4AD PUSH2 0x422 JUMP JUMPDEST PUSH1 0x40 MSTORE SWAP2 SWAP1 POP JUMP JUMPDEST DUP1 CALLDATALOAD PUSH8 0xFFFFFFFFFFFFFFFF DUP2 AND DUP2 EQ PUSH2 0x398 JUMPI PUSH1 0x0 DUP1 REVERT JUMPDEST PUSH1 0x0 DUP3 PUSH1 0x1F DUP4 ADD SLT PUSH2 0x4DE JUMPI PUSH1 0x0 DUP1 REVERT JUMPDEST DUP2 CALLDATALOAD PUSH8 0xFFFFFFFFFFFFFFFF DUP2 GT ISZERO PUSH2 0x4F8 JUMPI PUSH2 0x4F8 PUSH2 0x422 JUMP JUMPDEST PUSH2 0x50B PUSH1 0x1F DUP3 ADD PUSH1 0x1F NOT AND PUSH1 0x20 ADD PUSH2 0x484 JUMP JUMPDEST DUP2 DUP2 MSTORE DUP5 PUSH1 0x20 DUP4 DUP7 ADD ADD GT ISZERO PUSH2 0x520 JUMPI PUSH1 0x0 DUP1 REVERT JUMPDEST DUP2 PUSH1 0x20 DUP6 ADD PUSH1 0x20 DUP4 ADD CALLDATACOPY PUSH1 0x0 SWAP2 DUP2 ADD PUSH1 0x20 ADD SWAP2 SWAP1 SWAP2 MSTORE SWAP4 SWAP3 POP POP POP JUMP JUMPDEST PUSH1 0x0 DUP3 PUSH1 0x1F DUP4 ADD SLT PUSH2 0x54E JUMPI PUSH1 0x0 DUP1 REVERT JUMPDEST DUP2 CALLDATALOAD PUSH1 0x20 PUSH8 0xFFFFFFFFFFFFFFFF DUP3 GT ISZERO PUSH2 0x56A JUMPI PUSH2 0x56A PUSH2 0x422 JUMP JUMPDEST PUSH2 0x578 DUP2 DUP4 PUSH1 0x5 SHL ADD PUSH2 0x484 JUMP JUMPDEST DUP3 DUP2 MSTORE PUSH1 0x6 SWAP3 SWAP1 SWAP3 SHL DUP5 ADD DUP2 ADD SWAP2 DUP2 DUP2 ADD SWAP1 DUP7 DUP5 GT ISZERO PUSH2 0x597 JUMPI PUSH1 0x0 DUP1 REVERT JUMPDEST DUP3 DUP7 ADD JUMPDEST DUP5 DUP2 LT ISZERO PUSH2 0x5DD JUMPI PUSH1 0x40 DUP2 DUP10 SUB SLT ISZERO PUSH2 0x5B4 JUMPI PUSH1 0x0 DUP1 DUP2 REVERT JUMPDEST PUSH2 0x5BC PUSH2 0x438 JUMP JUMPDEST PUSH2 0x5C5 DUP3 PUSH2 0x381 JUMP JUMPDEST DUP2 MSTORE DUP2 DUP6 ADD CALLDATALOAD DUP6 DUP3 ADD MSTORE DUP4 MSTORE SWAP2 DUP4 ADD SWAP2 PUSH1 0x40 ADD PUSH2 0x59B JUMP JUMPDEST POP SWAP7 SWAP6 POP POP POP POP POP POP JUMP JUMPDEST PUSH1 0x0 PUSH1 0xA0 DUP3 CALLDATASIZE SUB SLT ISZERO PUSH2 0x5FA JUMPI PUSH1 0x0 DUP1 REVERT JUMPDEST PUSH2 0x602 PUSH2 0x461 JUMP JUMPDEST DUP3 CALLDATALOAD DUP2 MSTORE PUSH2 0x612 PUSH1 0x20 DUP5 ADD PUSH2 0x4B5 JUMP JUMPDEST PUSH1 0x20 DUP3 ADD MSTORE PUSH1 0x40 DUP4 ADD CALLDATALOAD PUSH8 0xFFFFFFFFFFFFFFFF DUP1 DUP3 GT ISZERO PUSH2 0x632 JUMPI PUSH1 0x0 DUP1 REVERT JUMPDEST PUSH2 0x63E CALLDATASIZE DUP4 DUP8 ADD PUSH2 0x4CD JUMP JUMPDEST PUSH1 0x40 DUP5 ADD MSTORE PUSH1 0x60 DUP6 ADD CALLDATALOAD SWAP2 POP DUP1 DUP3 GT ISZERO PUSH2 0x657 JUMPI PUSH1 0x0 DUP1 REVERT JUMPDEST PUSH2 0x663 CALLDATASIZE DUP4 DUP8 ADD PUSH2 0x4CD JUMP JUMPDEST PUSH1 0x60 DUP5 ADD MSTORE PUSH1 0x80 DUP6 ADD CALLDATALOAD SWAP2 POP DUP1 DUP3 GT ISZERO PUSH2 0x67C JUMPI PUSH1 0x0 DUP1 REVERT JUMPDEST POP PUSH2 0x689 CALLDATASIZE DUP3 DUP7 ADD PUSH2 0x53D JUMP JUMPDEST PUSH1 0x80 DUP4 ADD MSTORE POP SWAP3 SWAP2 POP POP JUMP INVALID LOG2 PUSH5 0x6970667358 0x22 SLT KECCAK256 PUSH3 0x7D9D0B PUSH32 0x90AD2DA6DEBE6B48047A48D0660F265892B4EEEBDC3B8D1E0A3D4164736F6C63 NUMBER STOP ADDMOD SGT STOP CALLER "
				},
				"gasEstimates": {
					"creation": {
						"codeDepositCost": "347800",
						"executionCost": "infinite",
						"totalCost": "infinite"
					},
					"external": {
						"ccipReceive((bytes32,uint64,bytes,bytes,(address,uint256)[]))": "infinite",
						"getRouter()": "infinite",
						"nft()": "2382",
						"supportsInterface(bytes4)": "427",
						"testMessage()": "infinite",
						"testMint()": "infinite",
						"updateNFT(address)": "24559"
					},
					"internal": {
						"_ccipReceive(struct Client.Any2EVMMessage memory)": "infinite"
					}
				},
				"methodIdentifiers": {
					"ccipReceive((bytes32,uint64,bytes,bytes,(address,uint256)[]))": "85572ffb",
					"getRouter()": "b0f479a1",
					"nft()": "47ccca02",
					"supportsInterface(bytes4)": "01ffc9a7",
					"testMessage()": "08076601",
					"testMint()": "9642ddaf",
					"updateNFT(address)": "5be68e93"
				}
			},
			"storageLayout": {
				"storage": [
					{
						"astId": 240,
						"contract": "CrossDestinationMinter.sol:CrossDestinationMinter",
						"label": "nft",
						"offset": 0,
						"slot": "0",
						"type": "t_contract(InftMinter)234"
					},
					{
						"astId": 245,
						"contract": "CrossDestinationMinter.sol:CrossDestinationMinter",
						"label": "routerSepolia",
						"offset": 0,
						"slot": "1",
						"type": "t_address"
					}
				],
				"types": {
					"t_address": {
						"encoding": "inplace",
						"label": "address",
						"numberOfBytes": "20"
					},
					"t_contract(InftMinter)234": {
						"encoding": "inplace",
						"label": "contract InftMinter",
						"numberOfBytes": "20"
					}
				}
			},
			"userdoc": {
				"kind": "user",
				"methods": {
					"ccipReceive((bytes32,uint64,bytes,bytes,(address,uint256)[]))": {
						"notice": "Called by the Router to deliver a message. If this reverts, any token transfers also revert. The message will move to a FAILED state and become available for manual execution."
					},
					"getRouter()": {
						"notice": "Return the current router"
					},
					"supportsInterface(bytes4)": {
						"notice": "IERC165 supports an interfaceId"
					}
				},
				"notice": "THIS IS AN EXAMPLE CONTRACT THAT USES HARDCODED VALUES FOR CLARITY. THIS IS AN EXAMPLE CONTRACT THAT USES UN-AUDITED CODE. DO NOT USE THIS CODE IN PRODUCTION.",
				"version": 1
			}
		}
	}
}