{
	"data": {
		"bytecode": {
			"linkReferences": {},
			"object": "608060405234801561001057600080fd5b506040516109da3803806109da83398101604081905261002f91610136565b60028054336001600160a01b0319918216179091556000805473f694e193200268f9a4868e4aa017a0118c9a8177908316811790915560018054730b9d5d9136855f6fec3c0993fee6e9ce8a29784693168317905560405163095ea7b360e01b815260048101829052600019602482015290919063095ea7b3906044016020604051808303816000875af11580156100cb573d6000803e3d6000fd5b505050506040513d601f19601f820116820180604052508101906100ef9190610166565b505060018054600160a01b600160e01b03191667de41ba4fc9d91ad960a01b179055600380546001600160a01b0319166001600160a01b0392909216919091179055610188565b60006020828403121561014857600080fd5b81516001600160a01b038116811461015f57600080fd5b9392505050565b60006020828403121561017857600080fd5b8151801515811461015f57600080fd5b610843806101976000396000f3fe608060405234801561001057600080fd5b50600436106100885760003560e01c8063a225149b1161005b578063a225149b14610117578063b13f255214610121578063bf384e1014610142578063f887ea401461015557600080fd5b80631a8af8d51461008d57806331db1ffc146100bd57806357970e93146100f15780638da5cb5b14610104575b600080fd5b6003546100a0906001600160a01b031681565b6040516001600160a01b0390911681526020015b60405180910390f35b6001546100d890600160a01b900467ffffffffffffffff1681565b60405167ffffffffffffffff90911681526020016100b4565b6001546100a0906001600160a01b031681565b6002546100a0906001600160a01b031681565b61011f610168565b005b61013461012f366004610682565b6104ea565b6040519081526020016100b4565b61011f610150366004610682565b61055f565b6000546100a0906001600160a01b031681565b6040805160a081019091526003546001600160a01b031660c08201526000908060e0810160408051808303601f19018152918152908252513360248201526001604482015260209091019060640160408051601f19818403018152919052602080820180516001600160e01b0316631cc7485960e01b17905290825201600060405190808252806020026020018201604052801561022c57816020015b60408051808201909152600080825260208201528152602001906001900390816102055790505b5081526001546001600160a01b0316602080830191909152604080518083018252620ef42090819052815160248082019290925282518082039092018252604401825291820180516001600160e01b03166397a657c960e01b17905290910152600080546001546040516320487ded60e01b815293945091926001600160a01b03909116916320487ded916102d791600160a01b900467ffffffffffffffff169086906004016106f8565b602060405180830381865afa1580156102f4573d6000803e3d6000fd5b505050506040513d601f19601f8201168201806040525081019061031891906107d2565b6001546040516370a0823160e01b81523060048201529192506001600160a01b0316906370a0823190602401602060405180830381865afa158015610361573d6000803e3d6000fd5b505050506040513d601f19601f8201168201806040525081019061038591906107d2565b811115610420576001546040516370a0823160e01b81523060048201526001600160a01b03909116906370a0823190602401602060405180830381865afa1580156103d4573d6000803e3d6000fd5b505050506040513d601f19601f820116820180604052508101906103f891906107d2565b604051634787a10360e11b815260048101919091526024810182905260440160405180910390fd5b600080546001546040516396f4e9f960e01b81526001600160a01b03909216916396f4e9f99161046791600160a01b90910467ffffffffffffffff169087906004016106f8565b6020604051808303816000875af1158015610486573d6000803e3d6000fd5b505050506040513d601f19601f820116820180604052508101906104aa91906107d2565b90507f54791b38f3859327992a1ca0590ad3c0f08feba98d1a4f56ab0dca74d203392a816040516104dd91815260200190565b60405180910390a1505050565b6001546040516370a0823160e01b81526001600160a01b03838116600483015260009216906370a0823190602401602060405180830381865afa158015610535573d6000803e3d6000fd5b505050506040513d601f19601f8201168201806040525081019061055991906107d2565b92915050565b6002546001600160a01b0316331461057657600080fd5b6001546040516370a0823160e01b81523060048201526000916001600160a01b0316906370a0823190602401602060405180830381865afa1580156105bf573d6000803e3d6000fd5b505050506040513d601f19601f820116820180604052508101906105e391906107d2565b90508060000361060657604051630686827b60e51b815260040160405180910390fd5b60015460405163a9059cbb60e01b81526001600160a01b038481166004830152602482018490529091169063a9059cbb906044016020604051808303816000875af1158015610659573d6000803e3d6000fd5b505050506040513d601f19601f8201168201806040525081019061067d91906107eb565b505050565b60006020828403121561069457600080fd5b81356001600160a01b03811681146106ab57600080fd5b9392505050565b6000815180845260005b818110156106d8576020818501810151868301820152016106bc565b506000602082860101526020601f19601f83011685010191505092915050565b6000604067ffffffffffffffff8516835260208181850152845160a08386015261072560e08601826106b2565b905081860151603f198087840301606088015261074283836106b2565b88860151888203830160808a01528051808352908601945060009350908501905b8084101561079557845180516001600160a01b0316835286015186830152938501936001939093019290860190610763565b5060608901516001600160a01b031660a08901526080890151888203830160c08a015295506107c481876106b2565b9a9950505050505050505050565b6000602082840312156107e457600080fd5b5051919050565b6000602082840312156107fd57600080fd5b815180151581146106ab57600080fdfea2646970667358221220c8ac1b53eb9134a643380fbd49ba9ebb5887ec361c90546b8495bf13f1616b9c64736f6c63430008130033",
			"opcodes": "PUSH1 0x80 PUSH1 0x40 MSTORE CALLVALUE DUP1 ISZERO PUSH2 0x10 JUMPI PUSH1 0x0 DUP1 REVERT JUMPDEST POP PUSH1 0x40 MLOAD PUSH2 0x9DA CODESIZE SUB DUP1 PUSH2 0x9DA DUP4 CODECOPY DUP2 ADD PUSH1 0x40 DUP2 SWAP1 MSTORE PUSH2 0x2F SWAP2 PUSH2 0x136 JUMP JUMPDEST PUSH1 0x2 DUP1 SLOAD CALLER PUSH1 0x1 PUSH1 0x1 PUSH1 0xA0 SHL SUB NOT SWAP2 DUP3 AND OR SWAP1 SWAP2 SSTORE PUSH1 0x0 DUP1 SLOAD PUSH20 0xF694E193200268F9A4868E4AA017A0118C9A8177 SWAP1 DUP4 AND DUP2 OR SWAP1 SWAP2 SSTORE PUSH1 0x1 DUP1 SLOAD PUSH20 0xB9D5D9136855F6FEC3C0993FEE6E9CE8A297846 SWAP4 AND DUP4 OR SWAP1 SSTORE PUSH1 0x40 MLOAD PUSH4 0x95EA7B3 PUSH1 0xE0 SHL DUP2 MSTORE PUSH1 0x4 DUP2 ADD DUP3 SWAP1 MSTORE PUSH1 0x0 NOT PUSH1 0x24 DUP3 ADD MSTORE SWAP1 SWAP2 SWAP1 PUSH4 0x95EA7B3 SWAP1 PUSH1 0x44 ADD PUSH1 0x20 PUSH1 0x40 MLOAD DUP1 DUP4 SUB DUP2 PUSH1 0x0 DUP8 GAS CALL ISZERO DUP1 ISZERO PUSH2 0xCB JUMPI RETURNDATASIZE PUSH1 0x0 DUP1 RETURNDATACOPY RETURNDATASIZE PUSH1 0x0 REVERT JUMPDEST POP POP POP POP PUSH1 0x40 MLOAD RETURNDATASIZE PUSH1 0x1F NOT PUSH1 0x1F DUP3 ADD AND DUP3 ADD DUP1 PUSH1 0x40 MSTORE POP DUP2 ADD SWAP1 PUSH2 0xEF SWAP2 SWAP1 PUSH2 0x166 JUMP JUMPDEST POP POP PUSH1 0x1 DUP1 SLOAD PUSH1 0x1 PUSH1 0xA0 SHL PUSH1 0x1 PUSH1 0xE0 SHL SUB NOT AND PUSH8 0xDE41BA4FC9D91AD9 PUSH1 0xA0 SHL OR SWAP1 SSTORE PUSH1 0x3 DUP1 SLOAD PUSH1 0x1 PUSH1 0x1 PUSH1 0xA0 SHL SUB NOT AND PUSH1 0x1 PUSH1 0x1 PUSH1 0xA0 SHL SUB SWAP3 SWAP1 SWAP3 AND SWAP2 SWAP1 SWAP2 OR SWAP1 SSTORE PUSH2 0x188 JUMP JUMPDEST PUSH1 0x0 PUSH1 0x20 DUP3 DUP5 SUB SLT ISZERO PUSH2 0x148 JUMPI PUSH1 0x0 DUP1 REVERT JUMPDEST DUP2 MLOAD PUSH1 0x1 PUSH1 0x1 PUSH1 0xA0 SHL SUB DUP2 AND DUP2 EQ PUSH2 0x15F JUMPI PUSH1 0x0 DUP1 REVERT JUMPDEST SWAP4 SWAP3 POP POP POP JUMP JUMPDEST PUSH1 0x0 PUSH1 0x20 DUP3 DUP5 SUB SLT ISZERO PUSH2 0x178 JUMPI PUSH1 0x0 DUP1 REVERT JUMPDEST DUP2 MLOAD DUP1 ISZERO ISZERO DUP2 EQ PUSH2 0x15F JUMPI PUSH1 0x0 DUP1 REVERT JUMPDEST PUSH2 0x843 DUP1 PUSH2 0x197 PUSH1 0x0 CODECOPY PUSH1 0x0 RETURN INVALID PUSH1 0x80 PUSH1 0x40 MSTORE CALLVALUE DUP1 ISZERO PUSH2 0x10 JUMPI PUSH1 0x0 DUP1 REVERT JUMPDEST POP PUSH1 0x4 CALLDATASIZE LT PUSH2 0x88 JUMPI PUSH1 0x0 CALLDATALOAD PUSH1 0xE0 SHR DUP1 PUSH4 0xA225149B GT PUSH2 0x5B JUMPI DUP1 PUSH4 0xA225149B EQ PUSH2 0x117 JUMPI DUP1 PUSH4 0xB13F2552 EQ PUSH2 0x121 JUMPI DUP1 PUSH4 0xBF384E10 EQ PUSH2 0x142 JUMPI DUP1 PUSH4 0xF887EA40 EQ PUSH2 0x155 JUMPI PUSH1 0x0 DUP1 REVERT JUMPDEST DUP1 PUSH4 0x1A8AF8D5 EQ PUSH2 0x8D JUMPI DUP1 PUSH4 0x31DB1FFC EQ PUSH2 0xBD JUMPI DUP1 PUSH4 0x57970E93 EQ PUSH2 0xF1 JUMPI DUP1 PUSH4 0x8DA5CB5B EQ PUSH2 0x104 JUMPI JUMPDEST PUSH1 0x0 DUP1 REVERT JUMPDEST PUSH1 0x3 SLOAD PUSH2 0xA0 SWAP1 PUSH1 0x1 PUSH1 0x1 PUSH1 0xA0 SHL SUB AND DUP2 JUMP JUMPDEST PUSH1 0x40 MLOAD PUSH1 0x1 PUSH1 0x1 PUSH1 0xA0 SHL SUB SWAP1 SWAP2 AND DUP2 MSTORE PUSH1 0x20 ADD JUMPDEST PUSH1 0x40 MLOAD DUP1 SWAP2 SUB SWAP1 RETURN JUMPDEST PUSH1 0x1 SLOAD PUSH2 0xD8 SWAP1 PUSH1 0x1 PUSH1 0xA0 SHL SWAP1 DIV PUSH8 0xFFFFFFFFFFFFFFFF AND DUP2 JUMP JUMPDEST PUSH1 0x40 MLOAD PUSH8 0xFFFFFFFFFFFFFFFF SWAP1 SWAP2 AND DUP2 MSTORE PUSH1 0x20 ADD PUSH2 0xB4 JUMP JUMPDEST PUSH1 0x1 SLOAD PUSH2 0xA0 SWAP1 PUSH1 0x1 PUSH1 0x1 PUSH1 0xA0 SHL SUB AND DUP2 JUMP JUMPDEST PUSH1 0x2 SLOAD PUSH2 0xA0 SWAP1 PUSH1 0x1 PUSH1 0x1 PUSH1 0xA0 SHL SUB AND DUP2 JUMP JUMPDEST PUSH2 0x11F PUSH2 0x168 JUMP JUMPDEST STOP JUMPDEST PUSH2 0x134 PUSH2 0x12F CALLDATASIZE PUSH1 0x4 PUSH2 0x682 JUMP JUMPDEST PUSH2 0x4EA JUMP JUMPDEST PUSH1 0x40 MLOAD SWAP1 DUP2 MSTORE PUSH1 0x20 ADD PUSH2 0xB4 JUMP JUMPDEST PUSH2 0x11F PUSH2 0x150 CALLDATASIZE PUSH1 0x4 PUSH2 0x682 JUMP JUMPDEST PUSH2 0x55F JUMP JUMPDEST PUSH1 0x0 SLOAD PUSH2 0xA0 SWAP1 PUSH1 0x1 PUSH1 0x1 PUSH1 0xA0 SHL SUB AND DUP2 JUMP JUMPDEST PUSH1 0x40 DUP1 MLOAD PUSH1 0xA0 DUP2 ADD SWAP1 SWAP2 MSTORE PUSH1 0x3 SLOAD PUSH1 0x1 PUSH1 0x1 PUSH1 0xA0 SHL SUB AND PUSH1 0xC0 DUP3 ADD MSTORE PUSH1 0x0 SWAP1 DUP1 PUSH1 0xE0 DUP2 ADD PUSH1 0x40 DUP1 MLOAD DUP1 DUP4 SUB PUSH1 0x1F NOT ADD DUP2 MSTORE SWAP2 DUP2 MSTORE SWAP1 DUP3 MSTORE MLOAD CALLER PUSH1 0x24 DUP3 ADD MSTORE PUSH1 0x1 PUSH1 0x44 DUP3 ADD MSTORE PUSH1 0x20 SWAP1 SWAP2 ADD SWAP1 PUSH1 0x64 ADD PUSH1 0x40 DUP1 MLOAD PUSH1 0x1F NOT DUP2 DUP5 SUB ADD DUP2 MSTORE SWAP2 SWAP1 MSTORE PUSH1 0x20 DUP1 DUP3 ADD DUP1 MLOAD PUSH1 0x1 PUSH1 0x1 PUSH1 0xE0 SHL SUB AND PUSH4 0x1CC74859 PUSH1 0xE0 SHL OR SWAP1 MSTORE SWAP1 DUP3 MSTORE ADD PUSH1 0x0 PUSH1 0x40 MLOAD SWAP1 DUP1 DUP3 MSTORE DUP1 PUSH1 0x20 MUL PUSH1 0x20 ADD DUP3 ADD PUSH1 0x40 MSTORE DUP1 ISZERO PUSH2 0x22C JUMPI DUP2 PUSH1 0x20 ADD JUMPDEST PUSH1 0x40 DUP1 MLOAD DUP1 DUP3 ADD SWAP1 SWAP2 MSTORE PUSH1 0x0 DUP1 DUP3 MSTORE PUSH1 0x20 DUP3 ADD MSTORE DUP2 MSTORE PUSH1 0x20 ADD SWAP1 PUSH1 0x1 SWAP1 SUB SWAP1 DUP2 PUSH2 0x205 JUMPI SWAP1 POP JUMPDEST POP DUP2 MSTORE PUSH1 0x1 SLOAD PUSH1 0x1 PUSH1 0x1 PUSH1 0xA0 SHL SUB AND PUSH1 0x20 DUP1 DUP4 ADD SWAP2 SWAP1 SWAP2 MSTORE PUSH1 0x40 DUP1 MLOAD DUP1 DUP4 ADD DUP3 MSTORE PUSH3 0xEF420 SWAP1 DUP2 SWAP1 MSTORE DUP2 MLOAD PUSH1 0x24 DUP1 DUP3 ADD SWAP3 SWAP1 SWAP3 MSTORE DUP3 MLOAD DUP1 DUP3 SUB SWAP1 SWAP3 ADD DUP3 MSTORE PUSH1 0x44 ADD DUP3 MSTORE SWAP2 DUP3 ADD DUP1 MLOAD PUSH1 0x1 PUSH1 0x1 PUSH1 0xE0 SHL SUB AND PUSH4 0x97A657C9 PUSH1 0xE0 SHL OR SWAP1 MSTORE SWAP1 SWAP2 ADD MSTORE PUSH1 0x0 DUP1 SLOAD PUSH1 0x1 SLOAD PUSH1 0x40 MLOAD PUSH4 0x20487DED PUSH1 0xE0 SHL DUP2 MSTORE SWAP4 SWAP5 POP SWAP2 SWAP3 PUSH1 0x1 PUSH1 0x1 PUSH1 0xA0 SHL SUB SWAP1 SWAP2 AND SWAP2 PUSH4 0x20487DED SWAP2 PUSH2 0x2D7 SWAP2 PUSH1 0x1 PUSH1 0xA0 SHL SWAP1 DIV PUSH8 0xFFFFFFFFFFFFFFFF AND SWAP1 DUP7 SWAP1 PUSH1 0x4 ADD PUSH2 0x6F8 JUMP JUMPDEST PUSH1 0x20 PUSH1 0x40 MLOAD DUP1 DUP4 SUB DUP2 DUP7 GAS STATICCALL ISZERO DUP1 ISZERO PUSH2 0x2F4 JUMPI RETURNDATASIZE PUSH1 0x0 DUP1 RETURNDATACOPY RETURNDATASIZE PUSH1 0x0 REVERT JUMPDEST POP POP POP POP PUSH1 0x40 MLOAD RETURNDATASIZE PUSH1 0x1F NOT PUSH1 0x1F DUP3 ADD AND DUP3 ADD DUP1 PUSH1 0x40 MSTORE POP DUP2 ADD SWAP1 PUSH2 0x318 SWAP2 SWAP1 PUSH2 0x7D2 JUMP JUMPDEST PUSH1 0x1 SLOAD PUSH1 0x40 MLOAD PUSH4 0x70A08231 PUSH1 0xE0 SHL DUP2 MSTORE ADDRESS PUSH1 0x4 DUP3 ADD MSTORE SWAP2 SWAP3 POP PUSH1 0x1 PUSH1 0x1 PUSH1 0xA0 SHL SUB AND SWAP1 PUSH4 0x70A08231 SWAP1 PUSH1 0x24 ADD PUSH1 0x20 PUSH1 0x40 MLOAD DUP1 DUP4 SUB DUP2 DUP7 GAS STATICCALL ISZERO DUP1 ISZERO PUSH2 0x361 JUMPI RETURNDATASIZE PUSH1 0x0 DUP1 RETURNDATACOPY RETURNDATASIZE PUSH1 0x0 REVERT JUMPDEST POP POP POP POP PUSH1 0x40 MLOAD RETURNDATASIZE PUSH1 0x1F NOT PUSH1 0x1F DUP3 ADD AND DUP3 ADD DUP1 PUSH1 0x40 MSTORE POP DUP2 ADD SWAP1 PUSH2 0x385 SWAP2 SWAP1 PUSH2 0x7D2 JUMP JUMPDEST DUP2 GT ISZERO PUSH2 0x420 JUMPI PUSH1 0x1 SLOAD PUSH1 0x40 MLOAD PUSH4 0x70A08231 PUSH1 0xE0 SHL DUP2 MSTORE ADDRESS PUSH1 0x4 DUP3 ADD MSTORE PUSH1 0x1 PUSH1 0x1 PUSH1 0xA0 SHL SUB SWAP1 SWAP2 AND SWAP1 PUSH4 0x70A08231 SWAP1 PUSH1 0x24 ADD PUSH1 0x20 PUSH1 0x40 MLOAD DUP1 DUP4 SUB DUP2 DUP7 GAS STATICCALL ISZERO DUP1 ISZERO PUSH2 0x3D4 JUMPI RETURNDATASIZE PUSH1 0x0 DUP1 RETURNDATACOPY RETURNDATASIZE PUSH1 0x0 REVERT JUMPDEST POP POP POP POP PUSH1 0x40 MLOAD RETURNDATASIZE PUSH1 0x1F NOT PUSH1 0x1F DUP3 ADD AND DUP3 ADD DUP1 PUSH1 0x40 MSTORE POP DUP2 ADD SWAP1 PUSH2 0x3F8 SWAP2 SWAP1 PUSH2 0x7D2 JUMP JUMPDEST PUSH1 0x40 MLOAD PUSH4 0x4787A103 PUSH1 0xE1 SHL DUP2 MSTORE PUSH1 0x4 DUP2 ADD SWAP2 SWAP1 SWAP2 MSTORE PUSH1 0x24 DUP2 ADD DUP3 SWAP1 MSTORE PUSH1 0x44 ADD PUSH1 0x40 MLOAD DUP1 SWAP2 SUB SWAP1 REVERT JUMPDEST PUSH1 0x0 DUP1 SLOAD PUSH1 0x1 SLOAD PUSH1 0x40 MLOAD PUSH4 0x96F4E9F9 PUSH1 0xE0 SHL DUP2 MSTORE PUSH1 0x1 PUSH1 0x1 PUSH1 0xA0 SHL SUB SWAP1 SWAP3 AND SWAP2 PUSH4 0x96F4E9F9 SWAP2 PUSH2 0x467 SWAP2 PUSH1 0x1 PUSH1 0xA0 SHL SWAP1 SWAP2 DIV PUSH8 0xFFFFFFFFFFFFFFFF AND SWAP1 DUP8 SWAP1 PUSH1 0x4 ADD PUSH2 0x6F8 JUMP JUMPDEST PUSH1 0x20 PUSH1 0x40 MLOAD DUP1 DUP4 SUB DUP2 PUSH1 0x0 DUP8 GAS CALL ISZERO DUP1 ISZERO PUSH2 0x486 JUMPI RETURNDATASIZE PUSH1 0x0 DUP1 RETURNDATACOPY RETURNDATASIZE PUSH1 0x0 REVERT JUMPDEST POP POP POP POP PUSH1 0x40 MLOAD RETURNDATASIZE PUSH1 0x1F NOT PUSH1 0x1F DUP3 ADD AND DUP3 ADD DUP1 PUSH1 0x40 MSTORE POP DUP2 ADD SWAP1 PUSH2 0x4AA SWAP2 SWAP1 PUSH2 0x7D2 JUMP JUMPDEST SWAP1 POP PUSH32 0x54791B38F3859327992A1CA0590AD3C0F08FEBA98D1A4F56AB0DCA74D203392A DUP2 PUSH1 0x40 MLOAD PUSH2 0x4DD SWAP2 DUP2 MSTORE PUSH1 0x20 ADD SWAP1 JUMP JUMPDEST PUSH1 0x40 MLOAD DUP1 SWAP2 SUB SWAP1 LOG1 POP POP POP JUMP JUMPDEST PUSH1 0x1 SLOAD PUSH1 0x40 MLOAD PUSH4 0x70A08231 PUSH1 0xE0 SHL DUP2 MSTORE PUSH1 0x1 PUSH1 0x1 PUSH1 0xA0 SHL SUB DUP4 DUP2 AND PUSH1 0x4 DUP4 ADD MSTORE PUSH1 0x0 SWAP3 AND SWAP1 PUSH4 0x70A08231 SWAP1 PUSH1 0x24 ADD PUSH1 0x20 PUSH1 0x40 MLOAD DUP1 DUP4 SUB DUP2 DUP7 GAS STATICCALL ISZERO DUP1 ISZERO PUSH2 0x535 JUMPI RETURNDATASIZE PUSH1 0x0 DUP1 RETURNDATACOPY RETURNDATASIZE PUSH1 0x0 REVERT JUMPDEST POP POP POP POP PUSH1 0x40 MLOAD RETURNDATASIZE PUSH1 0x1F NOT PUSH1 0x1F DUP3 ADD AND DUP3 ADD DUP1 PUSH1 0x40 MSTORE POP DUP2 ADD SWAP1 PUSH2 0x559 SWAP2 SWAP1 PUSH2 0x7D2 JUMP JUMPDEST SWAP3 SWAP2 POP POP JUMP JUMPDEST PUSH1 0x2 SLOAD PUSH1 0x1 PUSH1 0x1 PUSH1 0xA0 SHL SUB AND CALLER EQ PUSH2 0x576 JUMPI PUSH1 0x0 DUP1 REVERT JUMPDEST PUSH1 0x1 SLOAD PUSH1 0x40 MLOAD PUSH4 0x70A08231 PUSH1 0xE0 SHL DUP2 MSTORE ADDRESS PUSH1 0x4 DUP3 ADD MSTORE PUSH1 0x0 SWAP2 PUSH1 0x1 PUSH1 0x1 PUSH1 0xA0 SHL SUB AND SWAP1 PUSH4 0x70A08231 SWAP1 PUSH1 0x24 ADD PUSH1 0x20 PUSH1 0x40 MLOAD DUP1 DUP4 SUB DUP2 DUP7 GAS STATICCALL ISZERO DUP1 ISZERO PUSH2 0x5BF JUMPI RETURNDATASIZE PUSH1 0x0 DUP1 RETURNDATACOPY RETURNDATASIZE PUSH1 0x0 REVERT JUMPDEST POP POP POP POP PUSH1 0x40 MLOAD RETURNDATASIZE PUSH1 0x1F NOT PUSH1 0x1F DUP3 ADD AND DUP3 ADD DUP1 PUSH1 0x40 MSTORE POP DUP2 ADD SWAP1 PUSH2 0x5E3 SWAP2 SWAP1 PUSH2 0x7D2 JUMP JUMPDEST SWAP1 POP DUP1 PUSH1 0x0 SUB PUSH2 0x606 JUMPI PUSH1 0x40 MLOAD PUSH4 0x686827B PUSH1 0xE5 SHL DUP2 MSTORE PUSH1 0x4 ADD PUSH1 0x40 MLOAD DUP1 SWAP2 SUB SWAP1 REVERT JUMPDEST PUSH1 0x1 SLOAD PUSH1 0x40 MLOAD PUSH4 0xA9059CBB PUSH1 0xE0 SHL DUP2 MSTORE PUSH1 0x1 PUSH1 0x1 PUSH1 0xA0 SHL SUB DUP5 DUP2 AND PUSH1 0x4 DUP4 ADD MSTORE PUSH1 0x24 DUP3 ADD DUP5 SWAP1 MSTORE SWAP1 SWAP2 AND SWAP1 PUSH4 0xA9059CBB SWAP1 PUSH1 0x44 ADD PUSH1 0x20 PUSH1 0x40 MLOAD DUP1 DUP4 SUB DUP2 PUSH1 0x0 DUP8 GAS CALL ISZERO DUP1 ISZERO PUSH2 0x659 JUMPI RETURNDATASIZE PUSH1 0x0 DUP1 RETURNDATACOPY RETURNDATASIZE PUSH1 0x0 REVERT JUMPDEST POP POP POP POP PUSH1 0x40 MLOAD RETURNDATASIZE PUSH1 0x1F NOT PUSH1 0x1F DUP3 ADD AND DUP3 ADD DUP1 PUSH1 0x40 MSTORE POP DUP2 ADD SWAP1 PUSH2 0x67D SWAP2 SWAP1 PUSH2 0x7EB JUMP JUMPDEST POP POP POP JUMP JUMPDEST PUSH1 0x0 PUSH1 0x20 DUP3 DUP5 SUB SLT ISZERO PUSH2 0x694 JUMPI PUSH1 0x0 DUP1 REVERT JUMPDEST DUP2 CALLDATALOAD PUSH1 0x1 PUSH1 0x1 PUSH1 0xA0 SHL SUB DUP2 AND DUP2 EQ PUSH2 0x6AB JUMPI PUSH1 0x0 DUP1 REVERT JUMPDEST SWAP4 SWAP3 POP POP POP JUMP JUMPDEST PUSH1 0x0 DUP2 MLOAD DUP1 DUP5 MSTORE PUSH1 0x0 JUMPDEST DUP2 DUP2 LT ISZERO PUSH2 0x6D8 JUMPI PUSH1 0x20 DUP2 DUP6 ADD DUP2 ADD MLOAD DUP7 DUP4 ADD DUP3 ADD MSTORE ADD PUSH2 0x6BC JUMP JUMPDEST POP PUSH1 0x0 PUSH1 0x20 DUP3 DUP7 ADD ADD MSTORE PUSH1 0x20 PUSH1 0x1F NOT PUSH1 0x1F DUP4 ADD AND DUP6 ADD ADD SWAP2 POP POP SWAP3 SWAP2 POP POP JUMP JUMPDEST PUSH1 0x0 PUSH1 0x40 PUSH8 0xFFFFFFFFFFFFFFFF DUP6 AND DUP4 MSTORE PUSH1 0x20 DUP2 DUP2 DUP6 ADD MSTORE DUP5 MLOAD PUSH1 0xA0 DUP4 DUP7 ADD MSTORE PUSH2 0x725 PUSH1 0xE0 DUP7 ADD DUP3 PUSH2 0x6B2 JUMP JUMPDEST SWAP1 POP DUP2 DUP7 ADD MLOAD PUSH1 0x3F NOT DUP1 DUP8 DUP5 SUB ADD PUSH1 0x60 DUP9 ADD MSTORE PUSH2 0x742 DUP4 DUP4 PUSH2 0x6B2 JUMP JUMPDEST DUP9 DUP7 ADD MLOAD DUP9 DUP3 SUB DUP4 ADD PUSH1 0x80 DUP11 ADD MSTORE DUP1 MLOAD DUP1 DUP4 MSTORE SWAP1 DUP7 ADD SWAP5 POP PUSH1 0x0 SWAP4 POP SWAP1 DUP6 ADD SWAP1 JUMPDEST DUP1 DUP5 LT ISZERO PUSH2 0x795 JUMPI DUP5 MLOAD DUP1 MLOAD PUSH1 0x1 PUSH1 0x1 PUSH1 0xA0 SHL SUB AND DUP4 MSTORE DUP7 ADD MLOAD DUP7 DUP4 ADD MSTORE SWAP4 DUP6 ADD SWAP4 PUSH1 0x1 SWAP4 SWAP1 SWAP4 ADD SWAP3 SWAP1 DUP7 ADD SWAP1 PUSH2 0x763 JUMP JUMPDEST POP PUSH1 0x60 DUP10 ADD MLOAD PUSH1 0x1 PUSH1 0x1 PUSH1 0xA0 SHL SUB AND PUSH1 0xA0 DUP10 ADD MSTORE PUSH1 0x80 DUP10 ADD MLOAD DUP9 DUP3 SUB DUP4 ADD PUSH1 0xC0 DUP11 ADD MSTORE SWAP6 POP PUSH2 0x7C4 DUP2 DUP8 PUSH2 0x6B2 JUMP JUMPDEST SWAP11 SWAP10 POP POP POP POP POP POP POP POP POP POP JUMP JUMPDEST PUSH1 0x0 PUSH1 0x20 DUP3 DUP5 SUB SLT ISZERO PUSH2 0x7E4 JUMPI PUSH1 0x0 DUP1 REVERT JUMPDEST POP MLOAD SWAP2 SWAP1 POP JUMP JUMPDEST PUSH1 0x0 PUSH1 0x20 DUP3 DUP5 SUB SLT ISZERO PUSH2 0x7FD JUMPI PUSH1 0x0 DUP1 REVERT JUMPDEST DUP2 MLOAD DUP1 ISZERO ISZERO DUP2 EQ PUSH2 0x6AB JUMPI PUSH1 0x0 DUP1 REVERT INVALID LOG2 PUSH5 0x6970667358 0x22 SLT KECCAK256 0xC8 0xAC SHL MSTORE8 0xEB SWAP2 CALLVALUE 0xA6 NUMBER CODESIZE 0xF 0xBD 0x49 0xBA SWAP15 0xBB PC DUP8 0xEC CALLDATASIZE SHR SWAP1 SLOAD PUSH12 0x8495BF13F1616B9C64736F6C PUSH4 0x43000813 STOP CALLER "
		},
		"gasEstimates": {
			"creation": {
				"codeDepositCost": "423000",
				"executionCost": "infinite",
				"totalCost": "infinite"
			},
			"external": {
				"destinationChainSelector()": "2353",
				"destinationMinter()": "2327",
				"linkBalance(address)": "infinite",
				"linkToken()": "2371",
				"mintOnSepolia()": "infinite",
				"owner()": "2393",
				"router()": "2392",
				"withdrawLINK(address)": "infinite"
			}
		},
		"methodIdentifiers": {
			"destinationChainSelector()": "31db1ffc",
			"destinationMinter()": "1a8af8d5",
			"linkBalance(address)": "b13f2552",
			"linkToken()": "57970e93",
			"mintOnSepolia()": "a225149b",
			"owner()": "8da5cb5b",
			"router()": "f887ea40",
			"withdrawLINK(address)": "bf384e10"
		}
	},
	"abi": [
		{
			"inputs": [
				{
					"internalType": "address",
					"name": "destMinterAddress",
					"type": "address"
				}
			],
			"stateMutability": "nonpayable",
			"type": "constructor"
		},
		{
			"inputs": [
				{
					"internalType": "uint256",
					"name": "currentBalance",
					"type": "uint256"
				},
				{
					"internalType": "uint256",
					"name": "calculatedFees",
					"type": "uint256"
				}
			],
			"name": "NotEnoughBalance",
			"type": "error"
		},
		{
			"inputs": [],
			"name": "NothingToWithdraw",
			"type": "error"
		},
		{
			"anonymous": false,
			"inputs": [
				{
					"indexed": false,
					"internalType": "bytes32",
					"name": "messageId",
					"type": "bytes32"
				}
			],
			"name": "MessageSent",
			"type": "event"
		},
		{
			"inputs": [],
			"name": "destinationChainSelector",
			"outputs": [
				{
					"internalType": "uint64",
					"name": "",
					"type": "uint64"
				}
			],
			"stateMutability": "view",
			"type": "function"
		},
		{
			"inputs": [],
			"name": "destinationMinter",
			"outputs": [
				{
					"internalType": "address",
					"name": "",
					"type": "address"
				}
			],
			"stateMutability": "view",
			"type": "function"
		},
		{
			"inputs": [
				{
					"internalType": "address",
					"name": "account",
					"type": "address"
				}
			],
			"name": "linkBalance",
			"outputs": [
				{
					"internalType": "uint256",
					"name": "",
					"type": "uint256"
				}
			],
			"stateMutability": "view",
			"type": "function"
		},
		{
			"inputs": [],
			"name": "linkToken",
			"outputs": [
				{
					"internalType": "contract LinkTokenInterface",
					"name": "",
					"type": "address"
				}
			],
			"stateMutability": "view",
			"type": "function"
		},
		{
			"inputs": [],
			"name": "mintOnSepolia",
			"outputs": [],
			"stateMutability": "nonpayable",
			"type": "function"
		},
		{
			"inputs": [],
			"name": "owner",
			"outputs": [
				{
					"internalType": "address",
					"name": "",
					"type": "address"
				}
			],
			"stateMutability": "view",
			"type": "function"
		},
		{
			"inputs": [],
			"name": "router",
			"outputs": [
				{
					"internalType": "contract IRouterClient",
					"name": "",
					"type": "address"
				}
			],
			"stateMutability": "view",
			"type": "function"
		},
		{
			"inputs": [
				{
					"internalType": "address",
					"name": "beneficiary",
					"type": "address"
				}
			],
			"name": "withdrawLINK",
			"outputs": [],
			"stateMutability": "nonpayable",
			"type": "function"
		}
	]
}